:020000040800F2
:100000000050002061090008E1090008E10900082A
:10001000E1090008E1090008E1090008000000000A
:10002000000000000000000000000000E1090008DE
:10003000E109000800000000E1090008E1090008EA
:10004000E1090008E1090008E1090008E1090008E8
:10005000E1090008E1090008E1090008E1090008D8
:10006000E1090008E1090008E1090008E1090008C8
:10007000E1090008E1090008E1090008E1090008B8
:10008000E1090008E1090008E1090008E1090008A8
:10009000E1090008E1090008E1090008010200087F
:1000A000E1090008E1090008E1090008E109000888
:1000B000E1090008E1090008E1090008E109000878
:1000C000E1090008E1090008E1090008E109000868
:1000D000E10900081D030008E1090008E109000822
:1000E000E1090008E1090008E1090008000000003A
:1000F0000000000000000000000000000000000000
:080100000000000000000000F7
:1001080080B586B000AF0121142000F0D5FA012196
:100118004FF4003000F0EEFA4FF400533B82102306
:10012800FB740223BB7407F1100319462F4800F033
:1001380035F904233B821823FB740323BB7407F1AE
:10014800100319462A4800F029F908233B820423A2
:10015800FB7407F110031946254800F01FF94FF406
:1001680016533B600023BB800023FB8000233B81A8
:100178000023BB810C237B813B4619461D4800F0B8
:10018800D7FA01211B4800F08DFB4FF400511748A6
:1001980000F0C0F92021174800F0C3FB0346012BEB
:1001A800F8D1144800F0AEFB0346FB75FB7D9BB20B
:1001B8001946104800F095FB00BF80210D4800F05B
:1001C800B0FB0346002BF8D0FB7D422B05D14FF442
:1001D8000051064800F0ACF9DCE7FB7D542BD9D17F
:1001E8004FF40051014800F095F9D3E700100140A1
:1001F800000801400044004080B582B000AF334B96
:100208009B8C9BB27B60324B5B6903F04003002BF5
:1002180018D006212F4800F065F80346002B03D0BC
:100228002D4A7B6813600AE02B4B1B687A68D31A47
:100238002A4AA2FB03235B099AB2294B1A80244B52
:1002480040225A61224B5B6903F08003002B18D0CF
:100258000721204800F046F80346002B03D01E4A29
:100268007B6853600AE01C4B5B687A68D31A1B4AA8
:10027800A2FB03235B099AB2194B5A80144B8022C4
:100288005A61134B5B6903F48073002B19D0082162
:10029800104800F027F80346002B03D00E4A7B686D
:1002A80093600AE00C4B9B687A68D31A0B4AA2FB4E
:1002B80003235B099AB20A4B9A80054B4FF480726C
:1002C8005A6100BF0837BD4680BD00BF0008004026
:1002D80000040140000C01401400002009CB3D8DB2
:1002E8002000002080B483B000AF78600B467B808C
:1002F8007B689B687A88012101FA02F21340002B7F
:1003080014BF01230023DBB218460C37BD4680BC5E
:100318007047000080B483B000AF1C4B1B889BB2B1
:1003280003F02003002B1FD0184B9B889BB2FB7156
:10033800174B1B78DBB201335A4203F03F0302F03C
:100348003F0258BF5342BB71124B1B78DBB2BA79DC
:100358009A4209D00E4B1B78DBB219460E4AFB793C
:1003680053540B4ABB791370084B1B889BB203F09C
:100378000803002B05D0054B9B889BB2DBB27B7131
:100388007B7900BF0C37BD4680BC70470038014000
:1003980068000020690000202800002080B489B08F
:1003A80000AF786039600023FB6100233B610023C4
:1003B800BB610023FB6000237B610023BB603B68BB
:1003C800DB7803F00F03FB613B68DB7803F0100375
:1003D800002B05D03B689B781A46FB691343FB61E9
:1003E8003B681B88DBB2002B44D07B681B687B61B1
:1003F8000023BB6138E00122BB6902FA03F3FB600A
:100408003B681B881A46FB6813403B613A69FB68E6
:100418009A4226D1BB699B00FB600F22FB6802FA57
:1004280003F3BB60BB68DB437A6913407B61FA69FD
:10043800FB6802FA03F37A6913437B613B68DB7854
:10044800282B05D10122BB699A407B685A6108E0D4
:100458003B68DB78482B04D10122BB699A407B6852
:100468001A61BB690133BB61BB69072BC3D97B68C0
:100478007A691A603B681B88FF2B46D97B685B68E2
:100488007B610023BB613AE0BB690833012202FAB1
:1004980003F3FB603B681B881A46FB6813403B610B
:1004A8003A69FB689A4227D1BB699B00FB600F221F
:1004B800FB6802FA03F3BB60BB68DB437A6913404D
:1004C8007B61FA69FB6802FA03F37A6913437B617B
:1004D8003B68DB78282B05D1BB69083301229A4099
:1004E8007B685A613B68DB78482B05D1BB690833C8
:1004F80001229A407B681A61BB690133BB61BB6901
:10050800072BC1D97B687A695A6000BF2437BD467A
:1005180080BC704780B483B000AF78600B467B80A6
:100528007A887B681A6100BF0C37BD4680BC70476B
:1005380080B483B000AF78600B467B807A887B6894
:100548005A6100BF0C37BD4680BC704780B487B085
:1005580000AF786000237B6100233B610023FB60D0
:100568000023BB604F4B5B6803F00C037B617B6926
:10057800082B11D07B69082B3AD87B69002B03D054
:100588007B69042B04D033E07B68474A1A6033E068
:100598007B68454A1A602FE0424B5B6803F470138E
:1005A8003B61404B5B6803F48033FB603B699B0C09
:1005B80002333B61FB68002B06D13B693B4A03FBD6
:1005C80002F27B681A6017E0364B5B6803F400336D
:1005D800002B06D03B69354A03FB02F27B681A60A0
:1005E8000AE03B69304A03FB02F27B681A6003E0C9
:1005F8007B682D4A1A6000BF2A4B5B6803F0F00342
:100608007B617B691B097B61294A7B6913441B78E1
:10061800DBB2BB607B681A68BB68DA407B685A60EB
:10062800204B5B6803F4E0637B617B691B0A7B6199
:100638001F4A7B6913441B78DBB2BB607B685A682E
:10064800BB68DA407B689A60164B5B6803F46053BA
:100658007B617B69DB0A7B61154A7B6913441B78E4
:10066800DBB2BB607B685A68BB68DA407B68DA60DB
:100678000C4B5B6803F440437B617B699B0B7B619C
:100688000C4A7B6913441B78DBB2BB607B68DA6871
:10069800BB68B2FBF3F27B681A6100BF1C37BD462A
:1006A80080BC70470010024000127A0000093D002B
:1006B800000000201000002080B483B000AF7860F4
:1006C8000B46FB70FB78002B06D0094B9A6908494A
:1006D8007B6813438B6106E0054B9A697B68DB43B3
:1006E800034913408B6100BF0C37BD4680BC70477F
:1006F8000010024080B483B000AF78600B46FB70F6
:10070800FB78002B06D0094BDA6908497B6813434C
:10071800CB6106E0054BDA697B68DB43034913408C
:10072800CB6100BF0C37BD4680BC7047001002404B
:1007380080B58CB000AF786039600023FB6200237D
:10074800BB6200237B6200233B620023FB617B6862
:10075800FB617B681B8A9BB2FB62FA6A4CF6FF73EB
:100768001340FB623B68DB881A46FB6A1343FB6253
:10077800FB6A9AB27B681A827B689B899BB2FB6290
:10078800FA6A4EF6F3131340FB623B689A883B689B
:100798001B8913439AB23B685B8913439BB21A4681
:1007A800FB6A1343FB62FB6A9AB27B689A817B6897
:1007B8009B8A9BB2FB62FA6A4FF6FF431340FB62C7
:1007C8003B689B891A46FB6A1343FB62FB6A9AB231
:1007D8007B689A8207F108031846FFF7B7FEFB69A2
:1007E8002E4A934202D17B69BB6201E03B69BB623E
:1007F8007B689B899BB21BB2002B0CDABA6A134642
:100808009B0013449A001A443B681B685B00B2FBC8
:10081800F3F37B620BE0BA6A13469B0013449A0019
:100828001A443B681B689B00B2FBF3F37B627B6A4C
:100838001B4AA2FB03235B091B01FB62FB6A1B0922
:10084800642202FB03F37A6AD31A3B627B689B89B2
:100858009BB21BB2002B0CDA3B6ADB003233104A26
:10086800A2FB03235B0903F00703FA6A1343FB6245
:100878000BE03B6A1B013233094AA2FB03235B09E5
:1008880003F00F03FA6A1343FB62FB6A9AB27B68B0
:100898001A8100BF3037BD4680BD00BF0038014017
:1008A8001F85EB5180B483B000AF78600B46FB70B6
:1008B800FB78002B08D07B689B899BB243F40053DC
:1008C8009AB27B689A8107E07B689B899BB223F484
:1008D80000539AB27B689A8100BF0C37BD4680BC32
:1008E800704780B483B000AF78600B467B807B880C
:1008F800C3F308039AB27B689A8000BF0C37BD46E1
:1009080080BC704780B483B000AF78607B689B88F8
:100918009BB2C3F308039BB218460C37BD4680BC94
:10092800704780B485B000AF78600B467B800023A9
:10093800FB737B681B889AB27B8813409BB2002BA1
:1009480002D00123FB7301E00023FB73FB7B1846F5
:100958001437BD4680BC704780B586B000AF194AD1
:10096800194BD31A7B60184B7B61184B3B610023F2
:10097800FB600AE03A69531C3B617B69591C796149
:1009880012781A70FB680133FB60FA687B689A4238
:10099800F0D30F4A0F4BD31A7B600E4B7B610023B9
:1009A800BB6007E07B695A1C7A6100221A70BB6839
:1009B8000133BB60BA687B689A42F3D3FFF7A0FBA8
:1009C800FEE700BF1400002000000020000A000815
:1009D8006C0000201400002080B400AFFEE700BFC8
:1009E800F8B500BFF8BC08BC9E467047F8B500BF14
:0809F800F8BC08BC9E467047E4
:100A000000000000010203040102030406070809B4
:040A100002040608CE
:040000050800096185
:00000001FF
