:020000040800F2
:100000000050002001140008611400086114000869
:100010006114000861140008611400080000000069
:100020000000000000000000000000006114000853
:100030006114000800000000611400086114000849
:1000400061140008611400086114000861140008BC
:1000500061140008611400086114000861140008AC
:10006000611400086114000861140008611400089C
:10007000611400086114000861140008611400088C
:10008000611400086114000861140008611400087C
:1000900061140008611400086114000815070008C5
:1000A000611400086114000861140008611400085C
:1000B000611400084D0B0008611400086114000869
:1000C000611400086114000861140008611400083C
:1000D00061140008F90D000861140008611400089B
:0C00E0006114000861140008611400089D
:1000EC0080B500AF00F022F800F034F8FCE7000017
:1000FC0080B485B000AF78600A4B1B68002B02D12E
:10010C00084B094A1A60074B1B68FB60054B1A68C1
:10011C007B681344034A1360FB6818461437BD46CA
:10012C0080BC704770000020F800002080B500AF44
:10013C0001F0A6F800F0D8FC00F040FD4FF416508A
:10014C0000F05DF800F046F900F0AAFA00F070F843
:10015C0000BF80BD80B582B000AF00F08BFE00F018
:10016C00D9FE03467B603A79144B1A7000F052F8B2
:10017C000346002B04D000F001FD0346104A136027
:10018C0000F0FCFC02460E4B1B68D31AB3F57A7FC9
:10019C0002D900F0DDF90EE0084B1B78412B04D09E
:1001AC004D2B05D100F01DF805E000F00BF802E036
:1001BC0000F0CEF900BF0837BD4680BD000000201E
:1001CC007400002080B582B000AF00F0A3FE03469F
:1001DC007B60FB88184600F083FF00BF0837BD46E4
:1001EC0080BD80B582B000AF00F094FE03467B600A
:1001FC00786800F0A3FE00BF0837BD4680BD80B50F
:10020C0082B000AF7860786800F054FD00BF08370A
:10021C00BD4680BD80B500AF00F0A4FD0346184676
:10022C0080BD80B500AF00F0B3FD0346184680BD1D
:10023C0080B500AF03210A4800F01EFB04210848DA
:10024C0000F01AFB0521064800F016FB0C210548AE
:10025C0000F012FB0D21034800F00EFB00BF80BD27
:10026C0000080140000C014080B582B000AF0023B3
:10027C00FB710321224800F067FB03465AB297F941
:10028C00073013435BB2FB7104211D4800F05CFB8B
:10029C0003465B005AB297F9073013435BB2FB710C
:1002AC000521174800F050FB03469B005AB297F902
:1002BC00073013435BB2FB710C21124800F044FB76
:1002CC000346DB005AB297F9073013435BB2FB715C
:1002DC000D210C4800F038FB03461B015AB297F96C
:1002EC00073013435BB2FB71FB79DB43DBB203F0EA
:1002FC001F03FB71FB7918460837BD4680BD00BF54
:10030C0000080140000C014080B584B000AFFFF73D
:10031C00ABFF0346FB710023FB600023BB60FB7942
:10032C0003F00103002B05D0FB68023BFB60BB68AC
:10033C000133BB60FB7903F00203002B05D0FB6893
:10034C00013BFB60BB680133BB60FB7903F004032A
:10035C00002B02D0BB680133BB60FB7903F00803B0
:10036C00002B05D0FB680133FB60BB680133BB601D
:10037C00FB7903F01003002B05D0FB680233FB6004
:10038C00BB680133BB60BB68002B03D10F4B93F9E7
:10039C00003016E0FA68BB6892FBF3F3BB710B4BB1
:1003AC0093F900305A0097F906301344084A82FB3F
:1003BC000312DB17D31A7B71044A7B79137097F9FC
:1003CC00053018461037BD4680BD00BF78000020B0
:1003DC005655555580B500AF00210A4800F00CFA6F
:1003EC000121084800F008FA0A21064800F004FA36
:1003FC000B21044800F000FA00F0BEFA00F0A8F857
:10040C0000BF80BD000C014080B582B000AF034638
:10041C00FB80012200210F4800F077FA0022012115
:10042C000C4800F072FA01220A210A4800F06DFA19
:10043C0000220B21074800F068FAFB88184600F0F0
:10044C000DFBFB88184600F01FFB00BF0837BD46AC
:10045C0080BD00BF000C014080B582B000AF0346E8
:10046C00FB80002200210F4800F04FFA01220121ED
:10047C000C4800F04AFA00220A210A4800F045FA1A
:10048C0001220B21074800F040FAFB88184600F0C7
:10049C00E5FAFB88184600F0F7FA00BF0837BD46AE
:1004AC0080BD00BF000C014080B582B000AF034698
:1004BC00FB8000220021104800F027FA01220121C4
:1004CC000D4800F022FA00220A210B4800F01DFA18
:1004DC0001220B21084800F018FAFB885B089BB23C
:1004EC00184600F0BBFAFB88184600F0CDFA00BFA6
:1004FC000837BD4680BD00BF000C014080B582B0FE
:10050C0000AF0346FB8000220021104800F0FDF9EB
:10051C00012201210D4800F0F8F900220A210B48B4
:10052C0000F0F3F901220B21084800F0EEF9FB88EA
:10053C00184600F093FAFB885B089BB2184600F053
:10054C00A3FA00BF0837BD4680BD00BF000C0140B8
:10055C0080B500AF002200210C4800F0D6F9002233
:10056C0001210A4800F0D1F900220A21074800F0C5
:10057C00CCF900220B21054800F0C7F9002000F04F
:10058C006DFA002000F080FA00BF80BD000C014025
:10059C0080B582B000AF03460A46FB801346BB8091
:1005AC00002200210E4800F0B0F9012201210C4874
:1005BC0000F0ABF900220A21094800F0A6F901224B
:1005CC000B21074800F0A1F9FB88184600F046FA09
:1005DC00BB88184600F058FA00BF0837BD4680BDEE
:1005EC00000C014080B483B000AF0346FB71FB7973
:1005FC0003F01F03012202FA03F1054A97F90730B1
:10060C005B0942F8231000BF0C37BD4680BC704715
:10061C0000E100E080B500AF1D4B9B691C4A43F024
:10062C00010393611A4B9B69194A43F008039361C8
:10063C00184B1B68174A23F070631360154B1B682B
:10064C00144A43F080631360134BDB68124A23F4A3
:10065C007063D360104BDB680F4A43F48073D36034
:10066C000E4B1B680D4A43F0400313600B4B9B6809
:10067C000A4A43F040039360084BDB68074A43F097
:10068C004003D3601720FFF7ADFF00BF80BD00BF54
:10069C0000100240000C0140000001400004014029
:1006AC0080B500AF0021074800F0A6F80022002119
:1006BC00044800F02AF900F081FAFFF7ABFF00BF05
:1006CC0080BD00BF0008014080B500AF01220021B1
:1006DC00064800F01AF90A2000F092FA00220021D4
:1006EC00024800F012F900BF80BD00BF00080140B5
:1006FC0080B400AF034B1B889BB21846BD4680BC30
:10070C00704700BF8000002080B582B000AF1B4B4B
:10071C005B6903F04003002B2CD0194B9B8C9BB2D4
:10072C003B600621174800F00FF90346002B03D05D
:10073C00154A3B6813601AE0134B1B683A689A42DF
:10074C0005D3114B1B683A68D31A7B6007E00E4B3C
:10075C001B683A68D31A03F57F43FF337B607B68D1
:10076C000A4AA2FB03235B099AB2094B1A80034B7A
:10077C0040225A6100BF0837BD4680BD00040140CD
:10078C0000080040000C01407C00002009CB3D8D8E
:10079C008000002080B483B000AF78607B68124A80
:1007AC00934206D1114B9B69104A43F004039361A9
:1007BC0014E07B680E4A934206D10C4B9B690B4AA2
:1007CC0043F00803936109E07B680A4A934205D120
:1007DC00064B9B69054A43F01003936100BF0C372D
:1007EC00BD4680BC704700BF0008014000100240AD
:1007FC00000C01400010014080B584B000AF78605F
:10080C000B467B807868FFF7C5FF7B88FB81FB89F3
:10081C00072B15D87B681B68FA8992000F2101FA07
:10082C0002F2D2431A407B681A607B681B68FA8913
:10083C009200032101FA02F21A437B681A6017E056
:10084C00FB89083BFB817B685B68FA8992000F216E
:10085C0001FA02F2D2431A407B685A607B685B68EB
:10086C00FA899200032101FA02F21A437B685A605A
:10087C0000BF1037BD4680BD80B584B000AF786036
:10088C000B467B807868FFF785FF7B88FB81FB89B3
:10089C00072B15D87B681B68FA8992000F2101FA87
:1008AC0002F2D2431A407B681A607B681B68FA8993
:1008BC009200082101FA02F21A437B681A6017E0D1
:1008CC00FB89083BFB817B685B68FA8992000F21EE
:1008DC0001FA02F2D2431A407B685A607B685B686B
:1008EC00FA899200082101FA02F21A437B685A60D5
:1008FC007B68DB687A88012101FA02F21A437B6873
:10090C00DA6000BF1037BD4680BD80B483B000AF45
:10091C0078600B467B8013467B707B78002B07D06E
:10092C007B88012202FA03F31A467B681A6106E0FF
:10093C007B88012202FA03F31A467B685A6100BFD6
:10094C000C37BD4680BC704780B483B000AF786074
:10095C000B467B807B689B687A88012101FA02F246
:10096C001340002B14BF01230023DBB218460C37B5
:10097C00BD4680BC7047000080B400AF344B9B690F
:10098C00334A43F004039361314B9B69304A43F47F
:10099C00006393612F4B5B682E4A23F4704323F062
:1009AC000F0353602B4B5B682A4A43F4304343F0EC
:1009BC000B035360284B47221A85274B40F2E73232
:1009CC009A85254B00221A83234B00229A83224BB3
:1009DC0000221A84204B1B8B9BB21F4A43F06803E6
:1009EC009BB213831C4B9B8B9BB21B4A43F4D0438F
:1009FC009BB29383184B1B8C9BB2174A43F0010399
:100A0C009BB21384144B1B8C9BB2134A43F480533C
:100A1C009BB21384104B00229A860F4B0022A3F832
:100A2C0040200D4BB3F844309BB20B4A6FEA434362
:100A3C006FEA53439BB2A2F84430074B01229A82CF
:100A4C00054B81221A8000BFBD4680BC704700BF99
:100A5C000010024000080140002C014080B483B01B
:100A6C0000AF0346FB80FB88B3F57A7F02D94FF4C5
:100A7C007A73FB80034AFB88938600BF0C37BD4614
:100A8C0080BC7047002C014080B483B000AF03469B
:100A9C00FB80FB88B3F57A7F02D94FF47A73FB8025
:100AAC00044AFB88A2F8403000BF0C37BD4680BC1E
:100ABC00704700BF002C014080B483B000AF0346E8
:100ACC00FB71FB7903F01F03012202FA03F1054AC3
:100ADC0097F907305B0942F8231000BF0C37BD466D
:100AEC0080BC704700E100E080B500AF124BDB69C1
:100AFC00114A43F00203D361104B41F61F421A8591
:100B0C000E4B09229A850D4B00229A840B4B9B8924
:100B1C009BB20A4A43F001039BB29381074B1B889B
:100B2C009BB2064A43F001039BB213801D20FFF7D2
:100B3C00C3FF00BF80BD00BF001002400004004096
:100B4C0080B400AF0B4B1B8A9BB203F00103002B4C
:100B5C000CD0084B1B8A9BB2064A23F001039BB2B4
:100B6C001382054B1B680133034A136000BFBD465B
:100B7C0080BC7047000400408400002080B400AFAB
:100B8C00024B1B681846BD4680BC70478400002091
:100B9C0080B584B000AF7860FFF7F0FFF86000BF5D
:100BAC00FFF7ECFF0246FB68D31A7A689A42F7D833
:100BBC0000BF00BF1037BD4680BD000080B400AF41
:100BCC000D4BDB690C4A43F00403D3610B4B4722FA
:100BDC001A850A4B4FF6FF729A85084B00229A84AD
:100BEC00064B1B889BB2054A43F001039BB2138052
:100BFC0000BFBD4680BC704700100240000800409A
:100C0C0080B483B000AF0346FB80084B00229A846B
:100C1C0000BF064B9B8C9BB2FA889A42F9D800BF56
:100C2C0000BF0C37BD4680BC704700BF00080040B9
:100C3C0080B483B000AF0346FB71FB7903F01F0354
:100C4C00012202FA03F1054A97F907305B0942F8D1
:100C5C00231000BF0C37BD4680BC704700E100E09C
:100C6C0080B483B000AF03463960FB7197F907304D
:100C7C00002B0BDA3B68DAB20C49FB7903F00F035B
:100C8C00043B1201D2B20B441A7609E03B68DAB28B
:100C9C00074997F907301201D2B20B4483F80023AD
:100CAC0000BF0C37BD4680BC704700BF00ED00E0B4
:100CBC0000E100E080B582B000AF7860234B9B6907
:100CCC00224A43F004039361204B9B691F4A43F46F
:100CDC00804393611D4B9B691C4A43F00103936154
:100CEC001B4B5B681A4A23F0F0035360184B5B688C
:100CFC00174A43F0B0035360154B5B68144A23F456
:100D0C0070635360124B5B68114A43F48063536009
:100D1C00104B1A687B68B2FBF3F20F4B92B21A813C
:100D2C000D4B42F22C029A8101212520FFF798FFEE
:100D3C002520FFF77DFF094B00221A70084B00227B
:100D4C001A7000BF0837BD4680BD00BF00100240BE
:100D5C00000801400800002000380140C8000020B5
:100D6C00C900002080B400AF074B1B78DAB2074BE8
:100D7C001B78DBB29A4214BF01230023DBB2184666
:100D8C00BD4680BC704700BFC8000020C9000020D1
:100D9C0080B483B000AF0023FB71114B1B78DAB227
:100DAC00104B1B78DBB29A4214D00E4B1B78DBB283
:100DBC001A460D4B9B5CFB710A4B1B78DBB2013363
:100DCC005A4203F03F0302F03F0258BF5342DAB2DB
:100DDC00044B1A70FB7918460C37BD4680BC704723
:100DEC00C8000020C90000208800002080B483B017
:100DFC0000AF1C4B1B889BB203F02003002B1FD0B1
:100E0C00184B9B889BB2FB71174B1B78DBB20133E1
:100E1C005A4203F03F0302F03F0258BF5342BB71EA
:100E2C00124B1B78DBB2BA799A4209D00E4B1B7865
:100E3C00DBB219460E4AFB7953540B4ABB7913703B
:100E4C00084B1B889BB203F00803002B05D0054B05
:100E5C009B889BB2DBB27B717B7900BF0C37BD46A4
:100E6C0080BC704700380140C8000020C900002039
:100E7C008800002080B584B002AF38E0FFF7D1F9CC
:100E8C000346FB71FB79242B02D11E4B00221A70F6
:100E9C001C4B1B78122B09D81A4B1B785A1CD1B23D
:100EAC00184A11701946184AFB795354FB79232BB5
:100EBC001DD1144B1B781A46134B00219954114B1E
:100ECC0000221A70791DBA1DBB1C00930B460F49EA
:100EDC000D4800F027FD0346032B08D1BA790C4BC3
:100EEC001A707A790A4B5A707A88094B5A80FFF734
:100EFC0091F90346002BC1D100BF00BF0837BD4696
:100F0C0080BD00BFCA000020CC0000204425000892
:100F1C000400002080B483B000AF074B1B687B60DB
:100F2C000023BA8862F30F03FA8862F31F43184652
:100F3C000C37BD4680BC70470400002080B582B0E1
:100F4C0000AF78607B79423B102B39D801A252F864
:100F5C0023F000BFAF0F0008CD0F0008CD0F000825
:100F6C00CD0F0008A50F0008CD0F0008CD0F00080D
:100F7C00CD0F0008CD0F0008CD0F0008B90F0008E9
:100F8C00CD0F0008CD0F0008CD0F0008CD0F0008C5
:100F9C00CD0F0008C30F0008FB881846FFF734FA82
:100FAC0011E0FB881846FFF757FA0CE0FB8818464F
:100FBC00FFF77AFA07E0FB881846FFF79FFA02E082
:100FCC00FFF7C6FA00BF00BF0837BD4680BD00BFA3
:100FDC0080B483B000AF78607B68002B01DA00230B
:100FEC0008E07B68B3F57A7F02DD4FF47A7301E099
:100FFC007B689BB218460C37BD4680BC704780B5E9
:10100C0082B000AFFFF7BAFD78604FF4E170FFF7E4
:10101C004BFAB420FFF7BCFD0BE04FF4E170FFF787
:10102C0043FAFFF7ABFD02467B68D31AB3F5167F84
:10103C0005D8FFF719F90346002BEED000E000BFEE
:10104C0000BF0837BD4680BD80B582B000AFFFF74A
:10105C0095FD78604FF4E170FFF750FAB420FFF77C
:10106C0097FD0BE04FF4E170FFF748FAFFF786FDB0
:10107C0002467B68D31AB3F5167F05D8FFF7F4F850
:10108C000346002BEED000E000BF00BF0837BD4682
:10109C0080BD80B582B000AFFFF770FD78604FF473
:1010AC00E170FFF72BFA4FF4AF70FFF771FD0BE017
:1010BC004FF4E170FFF722FAFFF760FD02467B6800
:1010CC00D31AB3F5167F05D8FFF7CEF80346002BDD
:1010DC00EED000E000BF00BF0837BD4680BD000069
:1010EC0090B587B000AF0346FB80FFF747FD024683
:1010FC005D4B1B68D31A3B2B06D9FFF7E5FAFFF7BC
:10110C003DFD0346584A1360FFF7F2FA03467B8213
:10111C00FFF7AAF803467B747B8A002B15D07B8AD9
:10112C00092B12D87B7C03F00303032B02D1FFF7AE
:10113C0066FF95E07B7C03F01803182B02D1FFF7B8
:10114C0083FF8DE0FFF7A5FF8AE07B7C03F01F0394
:10115C000E2B02DDFFF753FF82E07B7C03F00303D1
:10116C00032B02D1FFF74BFF7AE07B7C03F01803D3
:10117C00182B02D1FFF768FF72E07B7C002B02D1A9
:10118C00FFF7E6F96CE0FFF7BFF803463B7497F9FD
:10119C001030184600F0D0FA03463449184600F0D7
:1011AC005DF903461C4697F91030184600F0C4FA56
:1011BC0002462F4B1B681946104600F007FA0346EF
:1011CC002C49184600F04AF903461946204600F00F
:1011DC00FFF903467B6197F91030184600F0ACFA22
:1011EC000346234A13602449786900F065FB0346E3
:1011FC00002B01D0204B7B612049786900F03EFB2D
:10120C000346002B01D01D4B7B61FB88184600F078
:10121C0093FA03467969184600F0D8F90346184644
:10122C0000F054FB0346FB60FB88184600F084FA80
:10123C0003467969184600F0CBF90346184600F0CE
:10124C0045FB0346BB60F868FFF7C2FE03461C462D
:10125C00B868FFF7BDFE034619462046FFF798F91C
:10126C001C37BD4690BD00BFE400002000000C42BE
:10127C00E00000200000704100009643000096C37F
:10128C0080B500AF154B1B68144A43F00103136083
:10129C00124B5A681149124B13404B600F4B1B6891
:1012AC000E4A23F0847323F4803313600B4B1B68BA
:1012BC000A4A23F480231360084B5B68074A23F423
:1012CC00FE035360054B4FF41F029A6000F00CF8BC
:1012DC00044B4FF000629A6000BF80BD00100240CA
:1012EC000000FFF800ED00E080B500AF00F002F860
:1012FC0000BF80BD80B483B000AF00237B600023AF
:10130C003B603A4B1B68394A43F480331360374BCC
:10131C001B6803F400333B607B6801337B603B68E4
:10132C00002B03D17B68B3F5A06FF0D12F4B1B685A
:10133C0003F40033002B02D001233B6001E00023B7
:10134C003B603B68012B4BD1294B1B68284A43F06F
:10135C0010031360264B1B68254A23F0030313600C
:10136C00234B1B68224A43F0020313601F4B1F4A96
:10137C005B6853601D4B1D4A5B6853601B4B5B687D
:10138C001A4A43F480635360184B5B68174A23F482
:10139C007C135360154B5B68144A43F4E813536099
:1013AC00124B1B68114A43F08073136000BF0F4B44
:1013BC001B6803F00073002BF9D00C4B5B680B4AD5
:1013CC0023F003035360094B5B68084A43F00203A4
:1013DC00536000BF054B5B6803F00C03082BF9D17D
:1013EC0000BF0C37BD4680BC704700BF00100240E8
:1013FC000020024080B582B000AF114B7B60114BD6
:10140C003B6007E07A68131D7B603B68191D3960EF
:10141C0012681A603B680C4A9342F3D30B4B3B6047
:10142C0004E03B681A1D3A6000221A603B68084AC7
:10143C009342F6D3FFF724FFFEF752FEFEE700BF00
:10144C00F82600080000002070000020700000202A
:10145C00F800002080B400AFFEE700BF4FF0FF0C97
:10146C001CEAD0521EBF1CEAD15392EA0C0F93EA2D
:10147C000C0F6FD01A4480EA010C400218BF5FEACF
:10148C0041211ED04FF0006343EA501043EA511142
:10149C00A0FB01310CF00040B1F5000F3EBF49003C
:1014AC0041EAD3715B0040EA010062F17F02FD2A40
:1014BC001DD8B3F1004F40EBC25008BF20F0010023
:1014CC00704790F0000F0CF0004C08BF49024CEA3A
:1014DC00502040EA51207F3AC2BFD2F1FF0340EACC
:1014EC00C250704740F400004FF00003013A5DDC3D
:1014FC0012F1190FDCBF00F000407047C2F100027E
:10150C00410021FA02F1C2F1200200FA02FC5FEA6A
:10151C00310040F1000053EA4C0308BF20EADC70B4
:10152C00704792F0000F00F0004C02BF400010F426
:10153C00000F013AF9D040EA0C0093F0000F01F0D3
:10154C00004C02BF490011F4000F013BF9D041EAF5
:10155C000C018FE70CEAD15392EA0C0F18BF93EAF7
:10156C000C0F0AD030F0004C18BF31F0004CD8D121
:10157C0080EA010000F00040704790F0000F17BFA8
:10158C0090F0004F084691F0000F91F0004F14D0EE
:10159C0092EA0C0F01D142020FD193EA0C0F03D146
:1015AC004B0218BF084608D180EA010000F0004049
:1015BC0040F0FE4040F40000704740F0FE4040F424
:1015CC004000704780F0004002E000BF81F0004115
:1015DC0042001FBF5FEA410392EA030F7FEA226CCD
:1015EC007FEA236C6AD04FEA1262D2EB1363C1BF5D
:1015FC00D218414048404140B8BF5B42192B88BFCC
:10160C00704710F0004F40F4000020F07F4018BFEE
:10161C00404211F0004F41F4000121F07F4118BF0E
:10162C00494292EA030F3FD0A2F1010241FA03FCB6
:10163C0010EB0C00C3F1200301FA03F100F000439E
:10164C0002D5494260EB4000B0F5000F13D3B0F166
:10165C00807F06D340084FEA310102F10102FE2AD5
:10166C0051D2B1F1004F40EBC25008BF20F0010045
:10167C0040EA03007047490040EB0000013A28BFE4
:10168C00B0F5000FEDD2B0FA80FCACF1080CB2EB67
:10169C000C0200FA0CF0AABF00EBC25052421843E5
:1016AC00BCBFD0401843704792F0000F81F400018A
:1016BC0006BF80F400000132013BB5E74FEA41035D
:1016CC007FEA226C18BF7FEA236C21D092EA030FC9
:1016DC0004D092F0000F08BF0846704790EA010F43
:1016EC001CBF0020704712F07F4F04D1400028BF70
:1016FC0040F00040704712F100723CBF00F5000052
:10170C00704700F0004343F0FE4040F40000704787
:10171C007FEA226216BF08467FEA23630146420233
:10172C0006BF5FEA412390EA010F40F48000704746
:10173C004FF0000304E000BF10F0004348BF4042EC
:10174C005FEA000C08BF704743F0964301464FF028
:10175C0000001CE050EA010208BF70474FF0000384
:10176C000AE000BF50EA010208BF704711F00043C5
:10177C0002D5404261EB41015FEA010C02BF844695
:10178C000146002043F0B64308BFA3F18053A3F5F4
:10179C000003BCFA8CF2083AA3EBC25310DB01FA3B
:1017AC0002FC634400FA02FCC2F12002BCF1004FBF
:1017BC0020FA02F243EB020008BF20F00100704750
:1017CC0002F1200201FA02FCC2F1200250EA4C00A4
:1017DC0021FA02F243EB020008BF20EADC707047EA
:1017EC004FF0FF3C06E000BF4FF0010C02E000BFE1
:1017FC004FF0010C4DF804CD4FEA40024FEA410383
:10180C007FEA226C18BF7FEA236C11D001B052EA38
:10181C00530C18BF90EA010F58BFB2EB030088BFFE
:10182C00C81738BF6FEAE17018BF40F0010070476D
:10183C007FEA226C02D15FEA402C05D17FEA236C4F
:10184C00E4D15FEA412CE1D05DF8040B704700BF96
:10185C00844608466146FFE70FB5FFF7C9FF00282D
:10186C0048BF10F1000F0FBD4DF808EDFFF7F4FF66
:10187C000CBF012000205DF808FB00BF4DF808EDFF
:10188C00FFF7EAFF34BF012000205DF808FB00BF22
:10189C004DF808EDFFF7E0FF94BF012000205DF844
:1018AC0008FB00BF4DF808EDFFF7D2FF94BF0120F5
:1018BC0000205DF808FB00BF4DF808EDFFF7C8FFEE
:1018CC0034BF012000205DF808FB00BF4FEA400246
:1018DC00B2F1FE4F0FD34FF09E03B3EB12620DD952
:1018EC004FEA002343F0004310F0004F23FA02F0BC
:1018FC0018BF404270474FF00000704712F1610F63
:10190C0001D1420205D110F0004008BF6FF0004039
:10191C0070474FF000007047014B1868704700BFCC
:10192C000C0000200EB44FF4017230B59CB01FAC0B
:10193C0054F8045BADF814200290069000F01EF8E9
:10194C000B4B03900B9300230F9314934FF6FF73E1
:10195C0007900848ADF816302A46234602A90068BD
:10196C00019400F06DF81CB0BDE8304003B0704736
:10197C00851900080C00002000207047034613F85E
:10198C00012B002AFBD1181A0138704738B54B1CB3
:10199C00144603D14FF0FF35284638BD9389CDB29C
:1019AC0023F020039381636B52688BB1A36B93423A
:1019BC0008DD23685A1E226003F8015C636801335A
:1019CC006360E9E7214600F031FC0028F1D0E1E743
:1019DC002169236851B1994208D213F8011CA9421C
:1019EC0004D1013B013223606260D5E7C4E90F32B8
:1019FC0004F1440363630323A363234603F8465FA4
:101A0C0023600123DCE710B50C46496B69B104F186
:101A1C004403994201D000F05FFC0020236C60630A
:101A2C00636013B1E36B236010BD23694FF0FF308B
:101A3C00236000236360A38943F02003A381F3E7B1
:101A4C002DE9F0470C4600210646ADF5227DCDE987
:101A5C004411A7490DF10408A091A649A64FDFF83F
:101A6C009C92CDF81881A19100931378002B00F073
:101A7C005C81D95D551C11F0080119D06368002BED
:101A8C000FDD23681A78BA5C120701D42A46ECE7FA
:101A9C00459A01330132459262682360013A6260D3
:101AAC00ECE721463046A19B98470028E9D0EDE7AA
:101ABC00252B12D09A466368002B40F39480226841
:101ACC001378534540F0318163680132013B636008
:101ADC00459B226001334593D8E74191439153785C
:101AEC002A2B04BF1023951C4FF00A0208BF419308
:101AFC00AA461AF8011BA1F13003092B1DD90322A8
:101B0C007E4800F0CDFB40B101235546A0EB090007
:101B1C0003FA00F0419B1843419015F8013B782BD8
:101B2C0006D8572B10D8252BC4D057D8002B65D0EE
:101B3C00032347930A23429372E0439B554602FBCF
:101B4C00031130394391D3E7A3F15802202AEFD87F
:101B5C0001A151F822F000BF171C00083D1B000822
:101B6C003D1B0008751C00083D1B00083D1B0008B0
:101B7C003D1B00083D1B00083D1B00083D1B0008D9
:101B8C003D1B00088B1C0008611C0008EF1B0008A3
:101B9C00EF1B0008EF1B00083D1B0008651C00082C
:101BAC003D1B00083D1B00083D1B00083D1B0008A9
:101BBC009B1C00086D1C00080F1C00083D1B000836
:101BCC003D1B0008971C00083D1B0008611C000809
:101BDC003D1B00083D1B0008171C0008453B022B51
:101BEC00A6D805231BE021463046A19B9847002828
:101BFC003FF465AF4498002840F08D804FF0FF30E3
:101C0C008FE0419A42F020024192419A42F40072D4
:101C1C00419210226F2B34BF03230423429247932B
:101C2C006368002B42DD419B590604D423681A7863
:101C3C00BA5C120741D4479B022B50DC6B46224600
:101C4C00304641A900F076F801286ED002287FF4C6
:101C5C001DAFCFE70A22DDE7002342930323DEE723
:101C6C00082342930423DAE72946404600F0B4F9EE
:101C7C00419B054643F0400341930123CFE7419B31
:101C8C0043F0400341930023C9E70223C7E741987F
:101C9C00C3063FF5FBAE009B459A191D00911B68CE
:101CAC0010F0010F14BF1A801A60EFE6214630467F
:101CBC00A19B98470028B6D09CE7459A01324592E3
:101CCC006268013A002A626002DD01332360ADE7ED
:101CDC0021463046A19B98470028A7D08AE7042BC1
:101CEC000EDC6B462246304641A900F07DF8ABE78E
:101CFC0099190008131A00087D25000850250008C2
:101D0C000B4B002B3FF4C2AE6B462246304641A92A
:101D1C00AFF3008098E7A38913F0400F18BF4FF082
:101D2C00FF300DF5227DBDE8F0874498F9E700BF40
:101D3C00000000002DE9F84315468A6880460C46E1
:101D4C0032B98A69002A0CBF01224FF0FF328A6037
:101D5C0000272268DFF88C90D1065FBF1A68111D2E
:101D6C0019601668A06988B1012807D12B681A7808
:101D7C0063699B5C53B9002F31D022E0022820D13B
:101D8C002B681B7813F809301B071AD4236801370A
:101D9C00DA065EBF2B681B7806F8013B2A686B6875
:101DAC0001322A60A268013B013A6B60A26042B129
:101DBC00002BD7DC29464046D4F8803198470028C0
:101DCC00D0D0236813F0100305D1E2680132E26031
:101DDC00A26902B13370002023693B442361BDE842
:101DEC00F88300BF7D2500082DE9F04F0C4698467E
:101DFC00754B87B08246164693E8070003AB83E821
:101E0C000700724BA169724A2746032918BF1A466C
:101E1C00A36801925A1EB2F5AE7F81BF6FF4AE7506
:101E2C0003EB050940F25D13A36057F81C3B98BF08
:101E3C004FF000093D464FF0000B43F45063236014
:101E4C00316803AB0222097853F82B0000F028FA12
:101E5C0028B3BBF1010F59D162682AB90823226853
:101E6C00636042F400722260226822F4A062226055
:101E7C00A268511EA16092B13268511C3160127877
:101E8C0005F8012B7268013A002A726007DC3146B2
:101E9C005046D4F880219047002840F085800BF103
:101EAC00010BBBF1030FCBD163680BB90A23636041
:101EBC00636848496069C91A00F08EF84FF0000B4E
:101ECC00A3682268002B3DD03168606991F800C08E
:101EDC0010F80C00002835D0BCF1300F24D11005BF
:101EEC0022D50BF1010BB9F1000F03D0013309F12D
:101EFC00FF39A3607368013B002B73601BDD3368F3
:101F0C0001333360A368013BA360D9E7BBF1020F37
:101F1C00AED1226802F4C061B1F5007FBFD11023AD
:101F2C0042F480726360A2E722F4106222600B78A4
:101F3C0005F8013BDEE731465046D4F8803198472E
:101F4C000028DFD02368DB050DD5BD4209D915F873
:101F5C00011C32465046D4F87C3105F1FF399847C4
:101F6C004D46BD422DD0226812F0100213D12A70BA
:101F7C00394663685046019EB0472168D8F8003056
:101F8C0011F0200F13D01A1DC8F800201B68186020
:101F9C00E3680133E3600020ED1BAB4425695D442D
:101FAC00256107B0BDE8F08F4FF0000BCAE71A1D92
:101FBC00C8F800201B6811F0010F14BF18801860BE
:101FCC00E6E70120EDE700BF702500083522000888
:101FDC004D2100086D25000870B50B7804465E2B6A
:101FEC0013BF002201224B78481C08BF881C04F147
:101FFC00FF05611E01F8012FA942FBD10BB9013875
:10200C0070BD82F001020546E254284610F8011B0F
:10201C002D2906D05D29F3D009B92846F0E70B46E7
:10202C00F1E76E785D2EFAD0B342F8DC1946023532
:10203C0001318E426254FBDCF11A0139B342A8BF64
:10204C000021581C4318E0E7012B2DE9F04780468E
:10205C0001D0242B06D9FFF75FFC16230360002068
:10206C00BDE8F0870D46354F284615F8014BE65D67
:10207C0016F00806F8D12D2C2FD101262C78851CB2
:10208C00002B57D0102B09D1302C07D1287800F019
:10209C00DF00582849D110236C780235002706F14F
:1020AC00004E0EF1FF3EBEFBF3F9384603FB19EA76
:1020BC00A4F1300CBCF1090F14D86446A34222DD04
:1020CC00002F1DDB81451BD301D1A24518DB012755
:1020DC0000FB034015F8014BEAE72B2C04BF2C78CE
:1020EC00851CCDE7A4F1410CBCF1190F01D8373C8C
:1020FC00E4E7A4F1610CBCF1190F04D8573CDDE7FF
:10210C004FF0FF37E6E7002F07DA22237046C8F8B6
:10211C000030002AA4D0691E05E006B14042002A16
:10212C009ED0002FF7D111609AE73024002BB5D147
:10213C000823B3E7302CA9D00A23AFE77D2500088C
:10214C00FFF782BF2DE9F04386460D46354F2846F2
:10215C0015F8014BE65D16F00806F8D12D2C2FD1A1
:10216C0001262C78851C002B57D0102B09D1302C34
:10217C0007D1287800F0DF00582849D110236C785B
:10218C0002354FF0FF38B8FBF3F8002703FB08F9D2
:10219C0038466FEA0909A4F1300CBCF1090F14D8C8
:1021AC006446A34222DD002F1DDB80451BD301D1E9
:1021BC00A14518DB012700FB034015F8014BEAE7AA
:1021CC002B2C04BF2C78851CCDE7A4F1410CBCF161
:1021DC00190F01D8373CE4E7A4F1610CBCF1190FDD
:1021EC0004D8573CDDE74FF0FF37E6E7002F07DA5E
:1021FC0022234FF0FF30CEF8003032B9BDE8F08327
:10220C0006B14042002AF9D007B1691E1160F5E70A
:10221C003024002BB5D10823B3E7302CA9D00A23E6
:10222C00AFE700BF7D250008FFF78CBF2DE9F0411B
:10223C000C46496B04F1440399421BD14FF4806165
:10224C0000F0B2F818B94FF0FF30BDE8F0814FF450
:10225C008063A36394F84630606380F8FF3394F88E
:10226C00453000F2FD30437094F844300370206028
:10227C000020EAE7A66B77003A4600F009F905461C
:10228C000028E0D000EB060801463246404600F03C
:10229C0015F8C4E90D57C4F80080E9E7704770479A
:1022AC00034610B5C9B202449342184601D100202E
:1022BC0003E0047801338C42F6D110BD0A449142FC
:1022CC0000F1FF3300D1704710B511F8014B91426A
:1022DC0003F8014FF9D110BD38B50546002940D09F
:1022EC0051F8043C0C1F002BB8BFE41800F010F997
:1022FC001C4A136833B9636014602846BDE8384043
:10230C0000F00CB9A34208D9206821188B4201BFF8
:10231C0019685B6809182160EDE71A465B680BB118
:10232C00A342FAD911685018A0420BD1206801447D
:10233C00501883421160E0D118685B680144116049
:10234C005360DAE702D90C232B60D6E720682118FA
:10235C008B4201BF19685B68091821606360546087
:10236C00CBE738BDF000002070B50E4E0C4631683E
:10237C00054611B900F0BCF830602146284600F043
:10238C00B7F8431C0AD0C41C24F00304A04207D0A5
:10239C00211A284600F0ACF8013001D14FF0FF347F
:1023AC00204670BDF40000202DE9F041CD1C25F035
:1023BC00030508350C2D38BF0C25002D074601DB15
:1023CC00A94205D90C2300263B603046BDE8F081BC
:1023DC002E4E00F09DF833681C4634BB2946384617
:1023EC00FFF7C2FF431C04464DD134682646002E2D
:1023FC0040D123683146384604EB030800F078F8E6
:10240C0080453AD1216803356D1A25F0030508354E
:10241C000C2D38BF0C2538462946FFF7A5FF013097
:10242C002BD023682B4423600EE02268521B1ED451
:10243C000B2A16D96119A342256018BF596063682D
:10244C0008BF316062514B60384604F10B0600F056
:10245C0065F826F00706231DF21AB6D09B1BA35075
:10246C00B3E76268A3420CBF32605A60ECE72346C4
:10247C006468B2E734467668B9E70C2338463B60AB
:10248C0000F04CF8A1E72560DEE700BFF00000206B
:10249C002DE9F041804614460E4621B91146BDE89F
:1024AC00F041FFF781BF2AB9FFF716FF25462846F2
:1024BC00BDE8F08100F038F88442074602D8B4EB4E
:1024CC00500F12D821464046FFF76EFF05460028F4
:1024DC00EDD0BC422246314628BF3A46FFF7EEFE0D
:1024EC0031464046FFF7F8FEE1E73546DFE70000EE
:1024FC0038B50023054D044608462B60FDF7F8FD62
:10250C00431C02D12B6803B1236038BDE8000020C6
:10251C000148FFF7C3BE00BFEC0000200148FFF7E5
:10252C00BEBE00BFEC00002051F8043C181F002B6D
:10253C00BCBF0B58C01870472425632C25632C2571
:10254C0068752300686C4C002B2D003030007858D7
:10255C0000412D46612D66383930313233343536F1
:10256C00375D000054250008572500085A2500083F
:10257C000020202020202020202028282828282047
:10258C00202020202020202020202020202020203F
:10259C0020881010101010101010101010101010A7
:1025AC001004040404040404040404101010101097
:1025BC001010414141414141010101010101010161
:1025CC0001010101010101010101010110101010B3
:1025DC001010424242424242020202020202020233
:1025EC000202020202020202020202021010101087
:1025FC0020000000000000000000000000000000AF
:10260C0000000000000000000000000000000000BE
:10261C0000000000000000000000000000000000AE
:10262C00000000000000000000000000000000009E
:10263C00000000000000000000000000000000008E
:10264C00000000000000000000000000000000007E
:10265C00000000000000000000000000000000006E
:10266C00000000000000000000000000000000005E
:10267C00000000000000000000000000000000004E
:10268C00000000000000000000000000000000003E
:10269C00000000000000000000000000000000002E
:1026AC00000000000000000000000000000000001E
:1026BC00000000000000000000000000000000000E
:1026CC0000000000000000000000000000000000FE
:1026DC0000000000F8B500BFF8BC08BC9E4670476F
:0C26EC00F8B500BFF8BC08BC9E46704763
:1026F8004D0000004D53BC0200A24A041000002007
:1027080000000000A0260008C02600088026000857
:1027180000000000000000000000000000000000B1
:1027280000000000000000000000000000000000A1
:102738000000000000000000000000000000000091
:102748000000000000000000000000000000000081
:102758000000000000000000000000000000000071
:0400000508001401DA
:00000001FF
