:020000040800F2
:100000000050002075120008D5120008D512000813
:10001000D5120008D5120008D51200080000000013
:10002000000000000000000000000000D5120008E1
:10003000D512000800000000D5120008D5120008F3
:10004000D5120008D5120008D5120008D5120008F4
:10005000D5120008D5120008D5120008D5120008E4
:10006000D5120008D5120008D5120008D5120008D4
:10007000D5120008D5120008D5120008D5120008C4
:10008000D5120008D5120008D5120008D5120008B4
:10009000D5120008D5120008D5120008690C000816
:1000A000D5120008D5120008D5120008D512000894
:1000B000D51200087D0D0008D5120008D5120008E1
:1000C000D5120008D5120008D5120008D512000874
:1000D000D5120008A90F0008D5120008D512000893
:0C00E000D5120008D5120008D512000847
:1000EC0080B582B000AF00F037F800F04DF800F0AA
:1000FC0051F803467B603B794D2B03D1786800F0B7
:10010C0063F8F2E73B79412B04D1FB88184600F0E9
:10011C0072F8EAE700F082F8E7E7000080B485B0F7
:10012C0000AF78600A4B1B68002B02D1084B094AC0
:10013C001A60074B1B68FB60054B1A687B681344FD
:10014C00034A1360FB6818461437BD4680BC7047E1
:10015C006C000020EC00002080B500AF00F0CAFF5E
:10016C0000F068F800F06CF800F008F800F050F8B7
:10017C0000F05AF800F039F800BF80BD80B500AF30
:10018C0000F050FF00BF80BD80B500AF00F050FF05
:10019C0000BF80BD80B584B000AF00F04FFF0346B8
:1001AC00BB603B7A3B717B7A7B717B89FB807B6884
:1001BC00FB600023BA8962F30F03FA8962F31F43D1
:1001CC0018461037BD4680BD80B584B000AF78604E
:1001DC003B793B737B797B73FB88FB81F86800F080
:1001EC0047FF00BF1037BD4680BD80B500AF00F0A3
:1001FC0050FF00BF80BD80B582B000AF0346FB80CE
:10020C00FB88184600F04BFF00BF0837BD4680BD89
:10021C0080B500AF00F050FF00BF80BD80B500AFCF
:10022C0000F050FF00BF80BD80B500AF00F050FF64
:10023C0000BF80BD80B500AF00F050FF00BF80BD97
:10024C0080B500AF00F050FF00BF80BD80B582B01C
:10025C0000AF7860786800F003FE00BF0837BD4639
:10026C0080BD80B500AF00F055FE0346184680BD3A
:10027C0080B500AF00F064FE0346184680BD80B523
:10028C0000AF4FF41650FFF7E1FF00BF80BD000038
:10029C0080B584B002AF38E0FFF7EAFF0346FB718C
:1002AC00FB79242B02D11E4B00221A701C4B1B789D
:1002BC00122B09D81A4B1B785A1CD1B2184A117040
:1002CC001946184AFB795354FB79232B1DD1144B37
:1002DC001B781A46134B00219954114B00221A70AB
:1002EC00791DBA1DBB1C00930B460F490D4800F03D
:1002FC00F5FF0346032B08D1BA790C4B1A707A79A7
:10030C000A4B5A707A88094B5A80FFF7AAFF0346AA
:10031C00002BC1D100BF00BF0837BD4680BD00BF58
:10032C007000002074000020FC1E0008000000205B
:10033C0080B483B000AF074B1B687B600023BA8886
:10034C0062F30F03FA8862F31F4318460C37BD465D
:10035C0080BC70470000002080B582B000AF786090
:10036C007B79423B102B39D801A252F823F000BF05
:10037C00CB030008E9030008E9030008E9030008BF
:10038C00C1030008E9030008E9030008E9030008B9
:10039C00E9030008E9030008D5030008E903000895
:1003AC00E9030008E9030008E9030008E903000871
:1003BC00DF030008FB88184600F052FA11E0FB88B6
:1003CC00184600F077FA0CE0FB88184600F09CFA0F
:1003DC0007E0FB88184600F0C3FA02E000F0ECFAE4
:1003EC0000BF00BF0837BD4680BD00BF80B483B0DE
:1003FC0000AF78607B68124A934206D1114B9B691F
:10040C00104A43F00403936114E07B680E4A934254
:10041C0006D10C4B9B690B4A43F00803936109E02E
:10042C007B680A4A934205D1064B9B69054A43F007
:10043C001003936100BF0C37BD4680BC704700BFF2
:10044C000008014000100240000C01400010014067
:10045C0080B584B000AF78600B467B807868FFF77E
:10046C00C5FF7B88FB81FB89072B15D87B681B6834
:10047C00FA8992000F2101FA02F2D2431A407B68EA
:10048C001A607B681B68FA899200032101FA02F258
:10049C001A437B681A6017E0FB89083BFB817B6879
:1004AC005B68FA8992000F2101FA02F2D2431A40DA
:1004BC007B685A607B685B68FA899200032101FAB9
:1004CC0002F21A437B685A6000BF1037BD4680BDEC
:1004DC0080B584B000AF78600B467B807868FFF7FE
:1004EC0085FF7B88FB81FB89072B15D87B681B68F4
:1004FC00FA8992000F2101FA02F2D2431A407B686A
:10050C001A607B681B68FA899200082101FA02F2D2
:10051C001A437B681A6017E0FB89083BFB817B68F8
:10052C005B68FA8992000F2101FA02F2D2431A4059
:10053C007B685A607B685B68FA899200082101FA33
:10054C0002F21A437B685A607B68DB687A88012167
:10055C0001FA02F21A437B68DA6000BF1037BD461D
:10056C0080BD80B483B000AF78600B467B801346AF
:10057C007B707B78002B07D07B88012202FA03F377
:10058C001A467B681A6106E07B88012202FA03F3A3
:10059C001A467B685A6100BF0C37BD4680BC704759
:1005AC0080B483B000AF78600B467B807B689B681F
:1005BC007A88012101FA02F21340002B14BF0123A7
:1005CC000023DBB218460C37BD4680BC70470000D8
:1005DC0080B500AF03210A48FFF77AFF04210848D1
:1005EC00FFF776FF05210648FFF772FF0C2105483F
:1005FC00FFF76EFF0D210348FFF76AFF00BF80BDB8
:10060C0000080140000C014080B582B000AF00230F
:10061C00FB7103212248FFF7C3FF03465AB297F937
:10062C00073013435BB2FB7104211D48FFF7B8FF81
:10063C0003465B005AB297F9073013435BB2FB7168
:10064C0005211748FFF7ACFF03469B005AB297F9F8
:10065C00073013435BB2FB710C211248FFF7A0FF6C
:10066C000346DB005AB297F9073013435BB2FB71B8
:10067C000D210C48FFF794FF03461B015AB297F962
:10068C00073013435BB2FB71FB79DB43DBB203F046
:10069C001F03FB71FB7918460837BD4680BD00BFB0
:1006AC0000080140000C014080B582B000AFFFF79C
:1006BC00ABFF0346FB71022000F082FBFFF7A4FFA7
:1006CC000346BB71FB7918460837BD4680BD80B523
:1006DC0082B000AF4FF4E17000F016F9FFF794FF11
:1006EC000346FB71FB7903F00403002B00D1F1E707
:1006FC0000BF00BF0837BD4680BD80B582B000AFDB
:10070C004FF4E17000F02CF9FFF77EFF0346FB710C
:10071C00FB7903F00403002B00D1F1E700BF00BF0D
:10072C000837BD4680BD80B582B000AF0023FB7199
:10073C004FF4E17000F014F9FFF766FF0346BB714C
:10074C00BB7903F00403002BF2D0FB790133FB716E
:10075C00FB79012B00D8EBE700BF00BF0837BD4683
:10076C0080BD000080B584B000AF0346FB8000F074
:10077C001DFB02462C4B1B68D31A3B2B06D900F0F1
:10078C004DFA00F013FB0346274A136000F05AFAA7
:10079C000346FB81FFF788FF03467B73FB89002B25
:1007AC0005D0FB89092B02D8FFF7BDFF39E07B7B15
:1007BC0003F01C031C2B02D1FFF789FF31E07B7B7C
:1007CC0003F00703072B02D1FFF797FF29E07B7B90
:1007DC0003F01803182B0CBF01230023DBB23B736F
:1007EC007B7B03F00303032B0CBF01230023DBB241
:1007FC00FB727B7B03F00403002B14BF012300234B
:10080C00DBB2BB723B7B002B02D0FFF760FF08E032
:10081C00FB7A002B02D0FFF770FF02E0FFF783FF9B
:10082C0000BF1037BD4680BD8800002080B500AFEA
:10083C0000210A48FFF70CFE01210848FFF708FECB
:10084C000A210648FFF704FE0B210448FFF700FEBF
:10085C0000F0D2F800F0B0F800BF80BD000C0140F1
:10086C0080B582B000AF0346FB8001220021104806
:10087C00FFF777FE002201210D48FFF772FE0122DF
:10088C000A210B48FFF76DFE00220B210848FFF7E9
:10089C0068FEFB88184600F021F9FB88143B9BB2DC
:1008AC00184600F031F900BF0837BD4680BD00BFC7
:1008BC00000C014080B582B000AF0346FB800022E3
:1008CC0000211048FFF74DFE012201210D48FFF7D2
:1008DC0048FE00220A210B48FFF743FE01220B21A0
:1008EC000848FFF73EFEFB88184600F0F7F8FB8837
:1008FC00143B9BB2184600F007F900BF0837BD4601
:10090C0080BD00BF000C014080B582B000AF034633
:10091C00FB80002200211148FFF723FE0122012158
:10092C000E48FFF71EFE00220A210C48FFF719FEA5
:10093C0001220B210948FFF714FEFB885B089BB2D0
:10094C00184600F0CBF8FB88143B9BB2184600F01D
:10095C00DBF800BF0837BD4680BD00BF000C01406E
:10096C0080B582B000AF0346FB8000220021114805
:10097C00FFF7F7FD012201210E48FFF7F2FD0022DF
:10098C000A210C48FFF7EDFD01220B210948FFF766
:10099C00E8FDFB88184600F0A1F8FB885B089BB2C9
:1009AC00143B9BB2184600F0AFF800BF0837BD46A9
:1009BC0080BD00BF000C014080B500AF00220021BB
:1009CC000C48FFF7CEFD002201210A48FFF7C9FDB4
:1009DC0000220A210748FFF7C4FD00220B2105481D
:1009EC00FFF7BFFD002000F079F8002000F08CF834
:1009FC0000BF80BD000C014080B400AF344B9B693C
:100A0C00334A43F004039361314B9B69304A43F4FE
:100A1C00006393612F4B5B682E4A23F4704323F0E1
:100A2C000F0353602B4B5B682A4A43F4304343F06B
:100A3C000B035360284B47221A85274B40F2E732B1
:100A4C009A85254B00221A83234B00229A83224B32
:100A5C0000221A84204B1B8B9BB21F4A43F0680365
:100A6C009BB213831C4B9B8B9BB21B4A43F4D0430E
:100A7C009BB29383184B1B8C9BB2174A43F0010318
:100A8C009BB21384144B1B8C9BB2134A43F48053BC
:100A9C009BB21384104B00229A860F4B0022A3F8B2
:100AAC0040200D4BB3F844309BB20B4A6FEA4343E2
:100ABC006FEA53439BB2A2F84430074B01229A824F
:100ACC00054B81221A8000BFBD4680BC704700BF19
:100ADC000010024000080140002C014080B483B09B
:100AEC0000AF0346FB80FB88B3F57A7F02D94FF445
:100AFC007A73FB80034AFB88938600BF0C37BD4694
:100B0C0080BC7047002C014080B483B000AF03461A
:100B1C00FB80FB88B3F57A7F02D94FF47A73FB80A4
:100B2C00044AFB88A2F8403000BF0C37BD4680BC9D
:100B3C00704700BF002C014080B483B000AF034667
:100B4C00FB71FB7903F01F03012202FA03F1054A42
:100B5C0097F907305B0942F8231000BF0C37BD46EC
:100B6C0080BC704700E100E080B500AF1D4B9B6975
:100B7C001C4A43F0010393611A4B9B69194A43F0D9
:100B8C0008039361184B1B68174A23F070631360BA
:100B9C00154B1B68144A43F080631360134BDB68DE
:100BAC00124A23F47063D360104BDB680F4A43F492
:100BBC008073D3600E4B1B680D4A43F040031360E7
:100BCC000B4B9B680A4A43F040039360084BDB686D
:100BDC00074A43F04003D3601720FFF7ADFF00BF77
:100BEC0080BD00BF00100240000C0140000001401D
:100BFC000004014080B500AF00210748FFF728FC36
:100C0C00002200210448FFF7ACFC00F0EFF8FFF7DE
:100C1C00ABFF00BF80BD00BF0008014080B500AF36
:100C2C00012200210648FFF79CFC0A2000F000F985
:100C3C00002200210248FFF794FC00BF80BD00BFDA
:100C4C000008014080B400AF034B1B889BB21846D0
:100C5C00BD4680BC704700BF9000002080B582B0BC
:100C6C0000AF1B4B5B6903F04003002B2CD0194BDE
:100C7C009B8C9BB23B6006211748FFF791FC034607
:100C8C00002B03D0154A3B6813601AE0134B1B680A
:100C9C003A689A4205D3114B1B683A68D31A7B60A9
:100CAC0007E00E4B1B683A68D31A03F57F43FF33FA
:100CBC007B607B680A4AA2FB03235B099AB2094B4F
:100CCC001A80034B40225A6100BF0837BD4680BDD5
:100CDC000004014000080040000C01408C00002082
:100CEC0009CB3D8D9000002080B483B000AF03464B
:100CFC00FB71FB7903F01F03012202FA03F1054A91
:100D0C0097F907305B0942F8231000BF0C37BD463A
:100D1C0080BC704700E100E080B500AF124BDB698E
:100D2C00114A43F00203D361104B41F61F421A855E
:100D3C000E4B09229A850D4B00229A840B4B9B89F2
:100D4C009BB20A4A43F001039BB29381074B1B8869
:100D5C009BB2064A43F001039BB213801D20FFF7A0
:100D6C00C3FF00BF80BD00BF001002400004004064
:100D7C0080B400AF0B4B1B8A9BB203F00103002B1A
:100D8C000CD0084B1B8A9BB2064A23F001039BB282
:100D9C001382054B1B680133034A136000BFBD4629
:100DAC0080BC7047000400409400002080B400AF69
:100DBC00024B1B681846BD4680BC7047940000204F
:100DCC0080B584B000AF7860FFF7F0FFF86000BF2B
:100DDC00FFF7ECFF0246FB68D31A7A689A42F7D801
:100DEC0000BF00BF1037BD4680BD000080B400AF0F
:100DFC000D4BDB690C4A43F00403D3610B4B4722C8
:100E0C001A850A4B4FF6FF729A85084B00229A847A
:100E1C00064B1B889BB2054A43F001039BB213801F
:100E2C0000BFBD4680BC7047001002400008004067
:100E3C0080B483B000AF0346FB80084B00229A8439
:100E4C0000BF064B9B8C9BB2FA889A42F9D800BF24
:100E5C0000BF0C37BD4680BC704700BF0008004087
:100E6C0080B483B000AF7860234B9B69224A43F077
:100E7C0004039361204B9B691F4A43F480439361A5
:100E8C001D4B9B691C4A43F0010393611B4B5B6830
:100E9C001A4A23F0F0035360184B5B68174A43F06F
:100EAC00B0035360154B5B68144A23F470635360B2
:100EBC00124B5B68114A43F480635360104B1A6801
:100ECC007B68B2FBF3F20F4B92B21A810D4B42F2DC
:100EDC002C029A810C4B102283F825230A4B2022DA
:100EEC005A600A4B00221A70094B00221A7000BF7C
:100EFC000C37BD4680BC7047001002400008014012
:100F0C00040000200038014000E100E0D80000207F
:100F1C00D900002080B400AF074B1B78DAB2074B26
:100F2C001B78DBB29A4214BF01230023DBB21846B4
:100F3C00BD4680BC704700BFD8000020D9000020FF
:100F4C0080B483B000AF0023FB71114B1B78DAB275
:100F5C00104B1B78DBB29A4214D00E4B1B78DBB2D1
:100F6C001A460D4B9B5CFB710A4B1B78DBB20133B1
:100F7C005A4203F03F0302F03F0258BF5342DAB229
:100F8C00044B1A70FB7918460C37BD4680BC704771
:100F9C00D8000020D90000209800002080B483B035
:100FAC0000AF1C4B1B889BB203F02003002B1FD0FF
:100FBC00184B9B889BB2FB71174B1B78DBB2013330
:100FCC005A4203F03F0302F03F0258BF5342BB7139
:100FDC00124B1B78DBB2BA799A4209D00E4B1B78B4
:100FEC00DBB219460E4AFB7953540B4ABB7913708A
:100FFC00084B1B889BB203F00803002B05D0054B54
:10100C009B889BB2DBB27B717B7900BF0C37BD46F2
:10101C0080BC704700380140D8000020D900002067
:10102C009800002080B500AFFFF729F900BF80BD04
:10103C0080B500AFFFF72CF900BF80BD80B584B040
:10104C0000AFFFF775F90346BB603B7A3B717B7AC7
:10105C007B717B89FB807B68FB600023BA8962F320
:10106C000F03FA8962F31F4318461037BD4680BD43
:10107C0080B584B000AF78603B793B737B797B7330
:10108C00FB88FB81F868FFF767F900BF1037BD4696
:10109C0080BD80B500AFFFF79BFA00BF80BD80B567
:1010AC0082B000AF0346FB80FB881846FFF75AFB63
:1010BC0000BF0837BD4680BD80B500AFFFF7B6FB5B
:1010CC0000BF80BD80B500AFFFF776FC00BF80BDD0
:1010DC0080B500AFFFF78EFD00BF80BD80B500AFBF
:1010EC00FFF71AFE00BF80BD80B500AFFFF77EFE94
:1010FC0000BF80BD80B500AF154B1B68144A43F090
:10110C0001031360124B5A681149124B13404B6088
:10111C000F4B1B680E4A23F0847323F48033136047
:10112C000B4B1B680A4A23F480231360084B5B6843
:10113C00074A23F4FE035360054B4FF41F029A60D9
:10114C0000F00CF8044B4FF000629A6000BF80BDB9
:10115C00001002400000FFF800ED00E080B500AF89
:10116C0000F002F800BF80BD80B483B000AF002354
:10117C007B6000233B603A4B1B68394A43F4803355
:10118C001360374B1B6803F400333B607B680133FF
:10119C007B603B68002B03D17B68B3F5A06FF0D16B
:1011AC002F4B1B6803F40033002B02D001233B6050
:1011BC0001E000233B603B68012B4BD1294B1B68A2
:1011CC00284A43F010031360264B1B68254A23F072
:1011DC0003031360234B1B68224A43F00203136082
:1011EC001F4B1F4A5B6853601D4B1D4A5B68536065
:1011FC001B4B5B681A4A43F480635360184B5B6863
:10120C00174A23F47C135360154B5B68144A43F460
:10121C00E8135360124B1B68114A43F08073136040
:10122C0000BF0F4B1B6803F00073002BF9D00C4B65
:10123C005B680B4A23F003035360094B5B68084A55
:10124C0043F00203536000BF054B5B6803F00C03D3
:10125C00082BF9D100BF0C37BD4680BC704700BFCE
:10126C00001002400020024080B582B000AF114B4C
:10127C007B60114B3B6007E07A68131D7B603B6819
:10128C00191D396012681A603B680C4A9342F3D3FB
:10129C000B4B3B6004E03B681A1D3A6000221A605D
:1012AC003B68084A9342F6D3FFF724FFFEF718FF7A
:1012BC00FEE700BFB0200008000000206C000020FA
:1012CC006C000020EC00002080B400AFFEE700BFF3
:1012DC00014B1868704700BF080000200EB44FF493
:1012EC00017230B59CB01FAC54F8045BADF81420FF
:1012FC000290069000F01EF80B4B03900B9300230A
:10130C000F9314934FF6FF7307900848ADF81630FF
:10131C002A46234602A90068019400F06DF81CB01F
:10132C00BDE8304003B070473D13000808000020B2
:10133C0000207047034613F8012B002AFBD1181A22
:10134C000138704738B54B1C144603D14FF0FF35AC
:10135C00284638BD9389CDB223F020039381636B6B
:10136C0052688BB1A36B934208DD23685A1E22602E
:10137C0003F8015C636801336360E9E7214600F020
:10138C0031FC0028F1D0E1E72169236851B1994281
:10139C0008D213F8011CA94204D1013B013223608D
:1013AC006260D5E7C4E90F3204F14403636303239D
:1013BC00A363234603F8465F23600123DCE710B5E3
:1013CC000C46496B69B104F14403994201D000F019
:1013DC005FFC0020236C6063636013B1E36B2360DC
:1013EC0010BD23694FF0FF30236000236360A38995
:1013FC0043F02003A381F3E72DE9F0470C460021CD
:10140C000646ADF5227DCDE94411A7490DF104083E
:10141C00A091A649A64FDFF89C92CDF81881A19116
:10142C0000931378002B00F05C81D95D551C11F0F2
:10143C00080119D06368002B0FDD23681A78BA5C99
:10144C00120701D42A46ECE7459A01330132459242
:10145C0062682360013A6260ECE721463046A19B4A
:10146C0098470028E9D0EDE7252B12D09A466368FF
:10147C00002B40F3948022681378534540F031815F
:10148C0063680132013B6360459B226001334593E5
:10149C00D8E74191439153782A2B04BF1023951C14
:1014AC004FF00A0208BF4193AA461AF8011BA1F19A
:1014BC003003092B1DD903227E4800F0CDFB40B12F
:1014CC0001235546A0EB090003FA00F0419B184399
:1014DC00419015F8013B782B06D8572B10D8252BAB
:1014EC00C4D057D8002B65D0032347930A234293CB
:1014FC0072E0439B554602FB031130394391D3E70D
:10150C00A3F15802202AEFD801A151F822F000BF14
:10151C00CF150008F5140008F51400082D16000866
:10152C00F5140008F5140008F5140008F51400086B
:10153C00F5140008F5140008F5140008431600080B
:10154C0019160008A7150008A7150008A71500080C
:10155C00F51400081D160008F5140008F514000811
:10156C00F5140008F5140008531600082516000899
:10157C00C7150008F5140008F51400084F160008EC
:10158C00F514000819160008F5140008F5140008E5
:10159C00CF150008453B022BA6D805231BE021469E
:1015AC003046A19B984700283FF465AF449800282B
:1015BC0040F08D804FF0FF308FE0419A42F02002D6
:1015CC004192419A42F40072419210226F2B34BF27
:1015DC0003230423429247936368002B42DD419B13
:1015EC00590604D423681A78BA5C120741D4479B75
:1015FC00022B50DC6B462246304641A900F076F8AF
:10160C0001286ED002287FF41DAFCFE70A22DDE758
:10161C00002342930323DEE7082342930423DAE7F3
:10162C002946404600F0B4F9419B054643F040037F
:10163C0041930123CFE7419B43F0400341930023A7
:10164C00C9E70223C7E74198C3063FF5FBAE009BF1
:10165C00459A191D00911B6810F0010F14BF1A80D8
:10166C001A60EFE621463046A19B98470028B6D079
:10167C009CE7459A013245926268013A002A626001
:10168C0002DD01332360ADE721463046A19B98472C
:10169C000028A7D08AE7042B0EDC6B462246304686
:1016AC0041A900F07DF8ABE751130008CB130008FB
:1016BC00351F0008081F00080B4B002B3FF4C2AE6F
:1016CC006B462246304641A9AFF3008098E7A389C8
:1016DC0013F0400F18BF4FF0FF300DF5227DBDE821
:1016EC00F0874498F9E700BF000000002DE9F843AB
:1016FC0015468A6880460C4632B98A69002A0CBFA6
:10170C0001224FF0FF328A6000272268DFF88C90AC
:10171C00D1065FBF1A68111D19601668A06988B1DF
:10172C00012807D12B681A7863699B5C53B9002F89
:10173C0031D022E0022820D12B681B7813F8093015
:10174C001B071AD423680137DA065EBF2B681B7897
:10175C0006F8013B2A686B6801322A60A268013BDB
:10176C00013A6B60A26042B1002BD7DC294640469F
:10177C00D4F8803198470028D0D0236813F0100398
:10178C0005D1E2680132E260A26902B13370002037
:10179C0023693B442361BDE8F88300BF351F000873
:1017AC002DE9F04F0C469846754B87B0824616468D
:1017BC0093E8070003AB83E80700724BA169724AF8
:1017CC002746032918BF1A46A36801925A1EB2F580
:1017DC00AE7F81BF6FF4AE7503EB050940F25D136C
:1017EC00A36057F81C3B98BF4FF000093D464FF0E3
:1017FC00000B43F450632360316803AB0222097879
:10180C0053F82B0000F028FA28B3BBF1010F59D183
:10181C0062682AB908232268636042F4007222606D
:10182C00226822F4A0622260A268511EA16092B1CB
:10183C003268511C3160127805F8012B7268013A3C
:10184C00002A726007DC31465046D4F8802190475C
:10185C00002840F085800BF1010BBBF1030FCBD1BD
:10186C0063680BB90A236360636848496069C91AE5
:10187C0000F08EF84FF0000BA3682268002B3DD0CF
:10188C003168606991F800C010F80C00002835D060
:10189C00BCF1300F24D1100522D50BF1010BB9F19D
:1018AC00000F03D0013309F1FF39A3607368013BCA
:1018BC00002B73601BDD336801333360A368013B7D
:1018CC00A360D9E7BBF1020FAED1226802F4C0616C
:1018DC00B1F5007FBFD1102342F480726360A2E7A0
:1018EC0022F4106222600B7805F8013BDEE73146EA
:1018FC005046D4F8803198470028DFD02368DB05A8
:10190C000DD5BD4209D915F8011C32465046D4F804
:10191C007C3105F1FF3998474D46BD422DD02268E8
:10192C0012F0100213D12A70394663685046019E9A
:10193C00B0472168D8F8003011F0200F13D01A1DD1
:10194C00C8F800201B681860E3680133E3600020CE
:10195C00ED1BAB4425695D44256107B0BDE8F08FF4
:10196C004FF0000BCAE71A1DC8F800201B6811F0D5
:10197C00010F14BF18801860E6E70120EDE700BFE7
:10198C00281F0008ED1B0008051B0008251F000878
:10199C0070B50B7804465E2B13BF002201224B78E6
:1019AC00481C08BF881C04F1FF05611E01F8012FBB
:1019BC00A942FBD10BB9013870BD82F0010205467A
:1019CC00E254284610F8011B2D2906D05D29F3D0CE
:1019DC0009B92846F0E70B46F1E76E785D2EFAD090
:1019EC00B342F8DC1946023501318E426254FBDCFD
:1019FC00F11A0139B342A8BF0021581C4318E0E783
:101A0C00012B2DE9F047804601D0242B06D9FFF796
:101A1C005FFC162303600020BDE8F0870D46354FB0
:101A2C00284615F8014BE65D16F00806F8D12D2C6A
:101A3C002FD101262C78851C002B57D0102B09D1C7
:101A4C00302C07D1287800F0DF00582849D110231A
:101A5C006C780235002706F1004E0EF1FF3EBEFBFE
:101A6C00F3F9384603FB19EAA4F1300CBCF1090F69
:101A7C0014D86446A34222DD002F1DDB81451BD305
:101A8C0001D1A24518DB012700FB034015F8014BDF
:101A9C00EAE72B2C04BF2C78851CCDE7A4F1410C74
:101AAC00BCF1190F01D8373CE4E7A4F1610CBCF18F
:101ABC00190F04D8573CDDE74FF0FF37E6E7002F4E
:101ACC0007DA22237046C8F80030002AA4D0691E19
:101ADC0005E006B14042002A9ED0002FF7D11160DC
:101AEC009AE73024002BB5D10823B3E7302CA9D0CA
:101AFC000A23AFE7351F0008FFF782BF2DE9F0433B
:101B0C0086460D46354F284615F8014BE65D16F016
:101B1C000806F8D12D2C2FD101262C78851C002BF2
:101B2C0057D0102B09D1302C07D1287800F0DF00CA
:101B3C00582849D110236C7802354FF0FF38B8FB88
:101B4C00F3F8002703FB08F938466FEA0909A4F1FA
:101B5C00300CBCF1090F14D86446A34222DD002FCF
:101B6C001DDB80451BD301D1A14518DB012700FBF0
:101B7C00034015F8014BEAE72B2C04BF2C78851C8D
:101B8C00CDE7A4F1410CBCF1190F01D8373CE4E7C7
:101B9C00A4F1610CBCF1190F04D8573CDDE74FF0F0
:101BAC00FF37E6E7002F07DA22234FF0FF30CEF89D
:101BBC00003032B9BDE8F08306B14042002AF9D0BA
:101BCC0007B1691E1160F5E73024002BB5D108234D
:101BDC00B3E7302CA9D00A23AFE700BF351F0008AC
:101BEC00FFF78CBF2DE9F0410C46496B04F144031F
:101BFC0099421BD14FF4806100F0B2F818B94FF044
:101C0C00FF30BDE8F0814FF48063A36394F8463055
:101C1C00606380F8FF3394F8453000F2FD30437078
:101C2C0094F84430037020600020EAE7A66B77003C
:101C3C003A4600F009F905460028E0D000EB06080A
:101C4C0001463246404600F015F8C4E90D57C4F879
:101C5C000080E9E770477047034610B5C9B20244EB
:101C6C009342184601D1002003E0047801338C42E2
:101C7C00F6D110BD0A44914200F1FF3300D17047F8
:101C8C0010B511F8014B914203F8014FF9D110BD79
:101C9C0038B50546002940D051F8043C0C1F002BE8
:101CAC00B8BFE41800F010F91C4A136833B963602C
:101CBC0014602846BDE8384000F00CB9A34208D99E
:101CCC00206821188B4201BF19685B6809182160D4
:101CDC00EDE71A465B680BB1A342FAD911685018AC
:101CEC00A0420BD120680144501883421160E0D10E
:101CFC0018685B68014411605360DAE702D90C2361
:101D0C002B60D6E7206821188B4201BF19685B68ED
:101D1C000918216063605460CBE738BDE4000020F3
:101D2C0070B50E4E0C463168054611B900F0BCF882
:101D3C0030602146284600F0B7F8431C0AD0C41C7A
:101D4C0024F00304A04207D0211A284600F0ACF876
:101D5C00013001D14FF0FF34204670BDE800002067
:101D6C002DE9F041CD1C25F0030508350C2D38BFAD
:101D7C000C25002D074601DBA94205D90C230026B2
:101D8C003B603046BDE8F0812E4E00F09DF8336884
:101D9C001C4634BB29463846FFF7C2FF431C044699
:101DAC004DD134682646002E40D123683146384642
:101DBC0004EB030800F078F880453AD1216803352C
:101DCC006D1A25F0030508350C2D38BF0C25384647
:101DDC002946FFF7A5FF01302BD023682B44236045
:101DEC000EE02268521B1ED40B2A16D96119A3428D
:101DFC00256018BF5960636808BF316062514B6041
:101E0C00384604F10B0600F065F826F00706231D92
:101E1C00F21AB6D09B1BA350B3E76268A3420CBF67
:101E2C0032605A60ECE723466468B2E73446766861
:101E3C00B9E70C2338463B6000F04CF8A1E725606D
:101E4C00DEE700BFE40000202DE9F0418046144697
:101E5C000E4621B91146BDE8F041FFF781BF2AB902
:101E6C00FFF716FF25462846BDE8F08100F038F84C
:101E7C008442074602D8B4EB500F12D82146404694
:101E8C00FFF76EFF05460028EDD0BC4222463146D6
:101E9C0028BF3A46FFF7EEFE31464046FFF7F8FE04
:101EAC00E1E73546DFE7000038B50023054D044671
:101EBC0008462B60FEF732F9431C02D12B6803B1A4
:101ECC00236038BDDC0000200148FFF7C3BE00BF13
:101EDC00E00000200148FFF7BEBE00BFE00000207C
:101EEC0051F8043C181F002BBCBF0B58C01870478E
:101EFC002425632C25632C2568752300686C4C0005
:101F0C002B2D00303000785800412D46612D66385D
:101F1C003930313233343536375D00000C1F000850
:101F2C000F1F0008121F0008002020202020202056
:101F3C00202028282828282020202020202020206D
:101F4C00202020202020202020881010101010107D
:101F5C0010101010101010101004040404040404C9
:101F6C000404041010101010101041414141414163
:101F7C000101010101010101010101010101010145
:101F8C000101010110101010101042424242424255
:101F9C000202020202020202020202020202020215
:101FAC0002020202101010102000000000000000BD
:101FBC000000000000000000000000000000000015
:101FCC000000000000000000000000000000000005
:101FDC0000000000000000000000000000000000F5
:101FEC0000000000000000000000000000000000E5
:101FFC0000000000000000000000000000000000D5
:10200C0000000000000000000000000000000000C4
:10201C0000000000000000000000000000000000B4
:10202C0000000000000000000000000000000000A4
:10203C000000000000000000000000000000000094
:10204C000000000000000000000000000000000084
:10205C000000000000000000000000000000000074
:10206C000000000000000000000000000000000064
:10207C000000000000000000000000000000000054
:10208C00000000000000000000000000F8B500BFD8
:10209C00F8BC08BC9E467047F8B500BFF8BC08BC3D
:0420AC009E46704795
:1020B0004D53BC0200A24A040C00002000000000A6
:1020C0005820000878200008382000080000000090
:1020D0000000000000000000000000000000000000
:1020E00000000000000000000000000000000000F0
:1020F00000000000000000000000000000000000E0
:1021000000000000000000000000000000000000CF
:0C211000000000000000000000000000C3
:040000050800127568
:00000001FF
