:020000040800F2
:10000000005000205D110008BD110008BD1100085E
:10001000BD110008BD110008BD110008000000005E
:10002000000000000000000000000000BD110008FA
:10003000BD11000800000000BD110008BD1100083E
:10004000BD110008BD110008BD110008BD11000858
:10005000BD110008BD110008BD110008BD11000848
:10006000BD110008BD110008BD110008BD11000838
:10007000BD110008BD110008BD110008BD11000828
:10008000BD110008BD110008BD110008BD11000818
:10009000BD110008BD110008BD110008E9050008E8
:1000A000BD110008BD110008BD110008BD110008F8
:1000B000BD1100083D0A0008BD110008BD1100086F
:1000C000BD110008BD110008BD110008BD110008D8
:1000D000BD110008850C0008BD110008BD11000805
:0C00E000BD110008BD110008BD11000892
:1000EC0080B582B000AF00F079FF00F021F800F08D
:1000FC0019FA00237B600023FB7000F009FE00F06E
:10010C00B5FC02467B68D31A132B0ED900F0AEFC5B
:10011C007860FB78184600F01BFAFB780133FB7013
:10012C00FB78022B01D90023FB7000F011F8E4E7F7
:10013C0080B500AF00F050FC00F054F800F0E0FD8A
:10014C0000F0F0F94FF4165000F033F800BF80BD0A
:10015C0080B500AF00F036FF0346412B04D04D2B89
:10016C0005D100F018F805E000F006F802E000F008
:10017C0012F800BF00BF80BD80B582B000AF00F0A8
:10018C0011FE03467B60FB88184600F081FE00BF21
:10019C000837BD4680BD80B582B000AF00F002FECE
:1001AC0003467B60786800F011FE00BF0837BD463F
:1001BC0080BD80B582B000AF7860786800F0C0FC7C
:1001CC0000BF0837BD4680BD80B500AF00F010FD04
:1001DC000346184680BD80B500AF00F01FFD0346F6
:1001EC00184680BD80B500AF00210A4800F0BEFA69
:1001FC000121084800F0BAFA0A21064800F0B6FAC4
:10020C000B21044800F0B2FA00F026FB00F0A8F82D
:10021C0000BF80BD000C014080B582B000AF03462A
:10022C00FB80012200210F4800F0E0FA002201219E
:10023C000C4800F0DBFA01220A210A4800F0D6FA39
:10024C0000220B21074800F0D1FAFB88184600F079
:10025C0075FBFB88184600F087FB00BF0837BD46CE
:10026C0080BD00BF000C014080B582B000AF0346DA
:10027C00FB80002200210F4800F0B8FA0122012176
:10028C000C4800F0B3FA00220A210A4800F0AEFA3A
:10029C0001220B21074800F0A9FAFB88184600F050
:1002AC004DFBFB88184600F05FFB00BF0837BD46CE
:1002BC0080BD00BF000C014080B582B000AF03468A
:1002CC00FB8001220021104800F090FA002201214D
:1002DC000D4800F08BFA01220A210B4800F086FA37
:1002EC0000220B21084800F081FAFB885B089BB2C6
:1002FC00184600F023FBFB88184600F035FB00BFC6
:10030C000837BD4680BD00BF000C014080B582B0EF
:10031C0000AF0346FB8001220021104800F066FA72
:10032C00002201210D4800F061FA01220A210B483C
:10033C0000F05CFA00220B21084800F057FAFB8809
:10034C00184600F0FBFAFB885B089BB2184600F0DD
:10035C000BFB00BF0837BD4680BD00BF000C014041
:10036C0080B500AF002200210C4800F03FFA0022BB
:10037C0001210A4800F03AFA00220A21074800F04D
:10038C0035FA00220B21054800F030FA002000F06D
:10039C00D5FA002000F0E8FA00BF80BD000C014047
:1003AC0080B582B000AF03460A46FB801346BB8083
:1003BC00012200210E4800F019FA002201210C48FC
:1003CC0000F014FA01220A21094800F00FFA002269
:1003DC000B21074800F00AFAFB88184600F0AEFA29
:1003EC00BB88184600F0C0FA00BF0837BD4680BD78
:1003FC00000C014080B483B000AF0346FB71FB7965
:10040C0003F01F03012202FA03F1054A97F90730A2
:10041C005B0942F8231000BF0C37BD4680BC704707
:10042C0000E100E080B400AF0D4BDB690C4A43F0F7
:10043C000403D3610B4B47221A850A4B4FF6FF720C
:10044C009A85084B00229A84064B1B889BB2054A5E
:10045C0043F001039BB2138000BFBD4680BC7047C4
:10046C00001002400008004080B500AF294B9B698A
:10047C00284A43F001039361264B9B69254A43F0BC
:10048C0008039361244B1B68234A23F07F431360BA
:10049C00214B1B68204A43F0884313601E4B5B685A
:1004AC001D4A23F00F0353601B4B5B681A4A43F041
:1004BC0004035360194BDB68184A23F47F43D36061
:1004CC00164BDB68154A43F48853D360134B1B69F6
:1004DC00124A23F00F031361104B1B690F4A43F0B0
:1004EC00010313610E4B1B680D4A43F4E073136058
:1004FC000B4B9B680A4A43F4E0739360084BDB6830
:10050C00074A43F4E073D3601720FFF773FF00BF73
:10051C0080BD00BF00100240000C014000000140F3
:10052C000004014080B500AF0021084800F01EF91E
:10053C000121064800F01AF90221044800F016F9CE
:10054C00FFF770FFFFF790FF00BF80BD0008014070
:10055C0080B582B000AF0346FB71FB79022B12D041
:10056C00022B16DC002B02D0012B06D011E001224D
:10057C000021194800F03AF90BE00122012116483C
:10058C0000F034F905E001220221134800F02EF9A5
:10059C0000BF0A2000F074FAFB79022B12D0022B58
:1005AC0016DC002B02D0012B06D011E0002200211A
:1005BC00094800F01BF90BE000220121064800F06D
:1005CC0015F905E000220221034800F00FF900BFE5
:1005DC0000BF0837BD4680BD0008014080B582B021
:1005EC0000AF334B9B8C9BB27B60324B5B6903F04F
:1005FC004003002B18D006212F4800F016F90346B3
:10060C00002B03D02D4A7B6813600AE02B4B1B6830
:10061C007A68D31A2A4AA2FB03235B099AB2294BA4
:10062C001A80244B40225A61224B5B6903F08003F1
:10063C00002B18D00721204800F0F7F80346002BB8
:10064C0003D01E4A7B6853600AE01C4B5B687A68D7
:10065C00D31A1B4AA2FB03235B099AB2194B5A808B
:10066C00144B80225A61134B5B6903F48073002B8B
:10067C0019D00821104800F0D8F80346002B03D0FD
:10068C000E4A7B6893600AE00C4B9B687A68D31A1D
:10069C000B4AA2FB03235B099AB20A4B9A80054BC7
:1006AC004FF480725A6100BF0837BD4680BD00BF51
:1006BC000008004000040140000C01406C000020C8
:1006CC0009CB3D8D7800002080B485B000AF7860F8
:1006DC000C4B1B889BB23B810A4B5B889BB27B818A
:1006EC00084B9B889BB2BB817B681A4607F10803B9
:1006FC00186810609B88938078681437BD4680BC5E
:10070C00704700BF7800002080B483B000AF7860E1
:10071C007B68124A934206D1114B9B69104A43F0F5
:10072C000403936114E07B680E4A934206D10C4B90
:10073C009B690B4A43F00803936109E07B680A4A02
:10074C00934205D1064B9B69054A43F01003936114
:10075C0000BF0C37BD4680BC704700BF000801408D
:10076C0000100240000C01400010014080B584B024
:10077C0000AF78600B467B807868FFF7C5FF7B88FD
:10078C00FB81FB89072B15D87B681B68FA899200C3
:10079C000F2101FA02F2D2431A407B681A607B687F
:1007AC001B68FA899200032101FA02F21A437B6852
:1007BC001A6017E0FB89083BFB817B685B68FA8950
:1007CC0092000F2101FA02F2D2431A407B685A6060
:1007DC007B685B68FA899200032101FA02F21A43E2
:1007EC007B685A6000BF1037BD4680BD80B483B0B3
:1007FC0000AF78600B467B8013467B707B78002BB8
:10080C0007D07B88012202FA03F31A467B681A612F
:10081C0006E07B88012202FA03F31A467B685A61D0
:10082C0000BF0C37BD4680BC704780B483B000AFAE
:10083C0078600B467B807B689B687A88012101FA83
:10084C0002F21340002B14BF01230023DBB2184625
:10085C000C37BD4680BC704780B400AF344B9B69ED
:10086C00334A43F004039361314B9B69304A43F4A0
:10087C00006393612F4B5B682E4A23F4704323F083
:10088C000F0353602B4B5B682A4A43F4304343F00D
:10089C000B035360284B47221A85274B40F2E73253
:1008AC009A85254B00221A83234B00229A83224BD4
:1008BC0000221A84204B1B8B9BB21F4A43F0680307
:1008CC009BB213831C4B9B8B9BB21B4A43F4D043B0
:1008DC009BB29383184B1B8C9BB2174A43F00103BA
:1008EC009BB21384144B1B8C9BB2134A43F480535E
:1008FC009BB21384104B00229A860F4B0022A3F854
:10090C0040200D4BB3F844309BB20B4A6FEA434383
:10091C006FEA53439BB2A2F84430074B01229A82F0
:10092C00054B81221A8000BFBD4680BC704700BFBA
:10093C000010024000080140002C014080B483B03C
:10094C0000AF0346FB80FB88B3F57A7F02D94FF4E6
:10095C007A73FB80034AFB88938600BF0C37BD4635
:10096C0080BC7047002C014080B483B000AF0346BC
:10097C00FB80FB88B3F57A7F02D94FF47A73FB8046
:10098C00044AFB88A2F8403000BF0C37BD4680BC3F
:10099C00704700BF002C014080B400AF00BF00BF07
:1009AC00BD4680BC7047000080B483B000AF0346E6
:1009BC00FB71FB7903F01F03012202FA03F1054AD4
:1009CC0097F907305B0942F8231000BF0C37BD467E
:1009DC0080BC704700E100E080B500AF124BDB69D2
:1009EC00114A43F00203D361104B41F61F421A85A2
:1009FC000E4B09229A850D4B00229A840B4B9B8936
:100A0C009BB20A4A43F001039BB29381074B1B88AC
:100A1C009BB2064A43F001039BB213801D20FFF7E3
:100A2C00C3FF00BF80BD00BF0010024000040040A7
:100A3C0080B400AF0B4B1B8A9BB203F00103002B5D
:100A4C000CD0084B1B8A9BB2064A23F001039BB2C5
:100A5C001382054B1B680133034A136000BFBD466C
:100A6C0080BC7047000400408000002080B400AFC0
:100A7C00024B1B681846BD4680BC704780000020A6
:100A8C0080B584B000AF0346FB800DE00023FB7300
:100A9C0006E0FFF781FFFB7BDBB20133DBB2FB73BC
:100AAC00FB7BDBB2112BF4D9FB885A1EFA80002B8E
:100ABC00ECD100BF00BF1037BD4680BD80B483B001
:100ACC0000AF0346FB71FB7903F01F03012202FA0E
:100ADC0003F1054A97F907305B0942F8231000BF70
:100AEC000C37BD4680BC704700E100E080B483B099
:100AFC0000AF03463960FB7197F90730002B0BDA16
:100B0C003B68DAB20C49FB7903F00F03043B12018A
:100B1C00D2B20B441A7609E03B68DAB2074997F96E
:100B2C0007301201D2B20B4483F8002300BF0C37FC
:100B3C00BD4680BC704700BF00ED00E000E100E066
:100B4C0080B582B000AF7860234B9B69224A43F09A
:100B5C0004039361204B9B691F4A43F480439361C8
:100B6C001D4B9B691C4A43F0010393611B4B5B6853
:100B7C001A4A23F0F0035360184B5B68174A43F092
:100B8C00B0035360154B5B68144A23F470635360D5
:100B9C00124B5B68114A43F480635360104B1A6824
:100BAC007B68B2FBF3F20F4B92B21A810D4B42F2FF
:100BBC002C029A8101212520FFF798FF2520FFF7B1
:100BCC007DFF094B00221A70084B00221A7000BFDF
:100BDC000837BD4680BD00BF001002400008014030
:100BEC000400002000380140C4000020C500002093
:100BFC0080B400AF074B1B78DAB2074B1B78DBB223
:100C0C009A4214BF01230023DBB21846BD4680BCB8
:100C1C00704700BFC4000020C500002080B483B022
:100C2C0000AF0023FB71114B1B78DAB2104B1B7811
:100C3C00DBB29A4214D00E4B1B78DBB21A460D4B2A
:100C4C009B5CFB710A4B1B78DBB201335A4203F0FD
:100C5C003F0302F03F0258BF5342DAB2044B1A7002
:100C6C00FB7918460C37BD4680BC7047C400002089
:100C7C00C50000208400002080B483B000AF1C4B62
:100C8C001B889BB203F02003002B1FD0184B9B88B2
:100C9C009BB2FB71174B1B78DBB201335A4203F04A
:100CAC003F0302F03F0258BF5342BB71124B1B78FB
:100CBC00DBB2BA799A4209D00E4B1B78DBB21946DB
:100CCC000E4AFB7953540B4ABB791370084B1B88A3
:100CDC009BB203F00803002B05D0054B9B889BB2FD
:100CEC00DBB27B717B7900BF0C37BD4680BC704793
:100CFC0000380140C4000020C50000208400002002
:100D0C0080B500AF4FF41650FFF753FA00BF80BD0B
:100D1C0080B582B000AF32E0FFF75DFA0346FB719D
:100D2C00FB79242B02D11B4B00221A70194B1B7818
:100D3C00122B09D8174B1B785A1CD1B2154A1170BB
:100D4C001946154AFB795354FB79232B17D1114BB8
:100D5C001B781A46104B002199540E4B00221A7026
:100D6C000D4B5A780D4B1A700B4BDA780B4B5A70A3
:100D7C000B4800F009FC03469AB2084B5A80FFF767
:100D8C0023FA0346002BC7D100BF00BF0837BD466E
:100D9C0080BD00BFC6000020C8000020000000205D
:100DAC00CD00002080B483B000AF074B1B687B6084
:100DBC000023BA8862F30F03FA8862F31F431846C4
:100DCC000C37BD4680BC70470000002080B582B057
:100DDC0000AF78607B79423B102B39D801A252F8D6
:100DEC0023F000BF3F0E00085D0E00085D0E0008EA
:100DFC005D0E0008350E00085D0E00085D0E000843
:100E0C005D0E00085D0E00085D0E0008490E00081E
:100E1C005D0E00085D0E00085D0E00085D0E0008FA
:100E2C005D0E0008530E0008FB881846FFF7F4F916
:100E3C0011E0FB881846FFF717FA0CE0FB88184600
:100E4C00FFF73AFA07E0FB881846FFF75FFA02E073
:100E5C00FFF786FA00BF00BF0837BD4680BD00BF54
:100E6C0080B483B000AF78607B68002B01DA00237C
:100E7C0008E07B68B3F57A7F02DD4FF47A7301E00A
:100E8C007B689BB218460C37BD4680BC704700008F
:100E9C0090B58BB000AF0346FB8007F10C031846EE
:100EAC00FFF712FCBB89132B14D8FB89142B04D924
:100EBC00FB881846FFF700FA7BE03B8A142B04D919
:100ECC00FB881846FFF722FA73E0FB881846FFF7F9
:100EDC00CBF96EE0FB891D2B65D83B8A1D2B62D8A4
:100EEC00FB89184600F0D2FA04463B8A184600F0FB
:100EFC00CDFA03461946204600F016FA03467B62EB
:100F0C002D4B1B68796A184600F010FA03461A46F6
:100F1C00294B1A60294B1B681946786A00F004FAB1
:100F2C0003463B62254A7B6A13602549786A00F0C8
:100F3C0043F903461C464FF08241386A00F03CF9F5
:100F4C0003461946204600F0F1F90346FB61FB8885
:100F5C00184600F09FFA0346F969184600F0E4F9C8
:100F6C000346184600F0EAFA0346BB61FB881846B4
:100F7C0000F090FA0346F969184600F0D7F90346D9
:100F8C00184600F0DBFA03467B61B869FFF768FF8F
:100F9C0003461C467869FFF763FF03461946204653
:100FAC00FFF7FEF905E0FA88FB8811461846FFF7B3
:100FBC00F7F92C37BD4690BDE0000020DC00002086
:100FCC000000704180B582B000AFFFF7EBFE034626
:100FDC007B603B7918460837BD4680BD80B500AFB5
:100FEC00154B1B68144A43F001031360124B5A68EB
:100FFC001149124B13404B600F4B1B680E4A23F0E8
:10100C00847323F4803313600B4B1B680A4A23F45C
:10101C0080231360084B5B68074A23F4FE0353607C
:10102C00054B4FF41F029A6000F00CF8044B4FF084
:10103C0000629A6000BF80BD001002400000FFF803
:10104C0000ED00E080B500AF00F002F800BF80BDFD
:10105C0080B483B000AF00237B6000233B603A4B2D
:10106C001B68394A43F480331360374B1B6803F415
:10107C0000333B607B6801337B603B68002B03D102
:10108C007B68B3F5A06FF0D12F4B1B6803F40033D2
:10109C00002B02D001233B6001E000233B603B6846
:1010AC00012B4BD1294B1B68284A43F010031360CA
:1010BC00264B1B68254A23F003031360234B1B6844
:1010CC00224A43F0020313601F4B1F4A5B685360B4
:1010DC001D4B1D4A5B6853601B4B5B681A4A43F4FB
:1010EC0080635360184B5B68174A23F47C1353607E
:1010FC00154B5B68144A43F4E8135360124B1B689E
:10110C00114A43F08073136000BF0F4B1B6803F050
:10111C000073002BF9D00C4B5B680B4A23F00303D4
:10112C005360094B5B68084A43F00203536000BFED
:10113C00054B5B6803F00C03082BF9D100BF0C378F
:10114C00BD4680BC704700BF00100240002002402A
:10115C0080B582B000AF114B7B60114B3B6007E058
:10116C007A68131D7B603B68191D396012681A6020
:10117C003B680C4A9342F3D30B4B3B6004E03B6857
:10118C001A1D3A6000221A603B68084A9342F6D353
:10119C00FFF724FFFEF7A4FFFEE700BFD0170008FF
:1011AC00000000206C0000206C000020E4000020F7
:1011BC0080B400AFFEE700BF4FF0FF0C1CEAD0522A
:1011CC001EBF1CEAD15392EA0C0F93EA0C0F6FD09E
:1011DC001A4480EA010C400218BF5FEA41211ED07C
:1011EC004FF0006343EA501043EA5111A0FB013168
:1011FC000CF00040B1F5000F3EBF490041EAD3713D
:10120C005B0040EA010062F17F02FD2A1DD8B3F1B8
:10121C00004F40EBC25008BF20F00100704790F027
:10122C00000F0CF0004C08BF49024CEA502040EA79
:10123C0051207F3AC2BFD2F1FF0340EAC25070473F
:10124C0040F400004FF00003013A5DDC12F1190F7D
:10125C00DCBF00F000407047C2F10002410021FAEF
:10126C0002F1C2F1200200FA02FC5FEA310040F107
:10127C00000053EA4C0308BF20EADC70704792F080
:10128C00000F00F0004C02BF400010F4000F013AB8
:10129C00F9D040EA0C0093F0000F01F0004C02BFB3
:1012AC00490011F4000F013BF9D041EA0C018FE722
:1012BC000CEAD15392EA0C0F18BF93EA0C0F0AD028
:1012CC0030F0004C18BF31F0004CD8D180EA01004E
:1012DC0000F00040704790F0000F17BF90F0004FE7
:1012EC00084691F0000F91F0004F14D092EA0C0FC9
:1012FC0001D142020FD193EA0C0F03D14B0218BF5C
:10130C00084608D180EA010000F0004040F0FE40A1
:10131C0040F40000704740F0FE4040F4400070473D
:10132C0080F0004002E000BF81F0004142001FBF8E
:10133C005FEA410392EA030F7FEA226C7FEA236C97
:10134C006AD04FEA1262D2EB1363C1BFD21841408C
:10135C0048404140B8BF5B42192B88BF704710F022
:10136C00004F40F4000020F07F4018BF404211F0C5
:10137C00004F41F4000121F07F4118BF494292EA2D
:10138C00030F3FD0A2F1010241FA03FC10EB0C0059
:10139C00C3F1200301FA03F100F0004302D54942E6
:1013AC0060EB4000B0F5000F13D3B0F1807F06D393
:1013BC0040084FEA310102F10102FE2A51D2B1F18B
:1013CC00004F40EBC25008BF20F0010040EA030080
:1013DC007047490040EB0000013A28BFB0F5000F00
:1013EC00EDD2B0FA80FCACF1080CB2EB0C0200FAB6
:1013FC000CF0AABF00EBC25052421843BCBFD04005
:10140C001843704792F0000F81F4000106BF80F47E
:10141C0000000132013BB5E74FEA41037FEA226C41
:10142C0018BF7FEA236C21D092EA030F04D092F00C
:10143C00000F08BF0846704790EA010F1CBF002040
:10144C00704712F07F4F04D1400028BF40F000409D
:10145C00704712F100723CBF00F50000704700F0BD
:10146C00004343F0FE4040F4000070477FEA2262E4
:10147C0016BF08467FEA23630146420206BF5FEAB5
:10148C00412390EA010F40F4800070474FF00003B5
:10149C0004E000BF10F0004348BF40425FEA000C7C
:1014AC0008BF704743F0964301464FF000001CE024
:1014BC0050EA010208BF70474FF000030AE000BF7A
:1014CC0050EA010208BF704711F0004302D54042B8
:1014DC0061EB41015FEA010C02BF8446014600202A
:1014EC0043F0B64308BFA3F18053A3F50003BCFA45
:1014FC008CF2083AA3EBC25310DB01FA02FC6344F2
:10150C0000FA02FCC2F12002BCF1004F20FA02F2F8
:10151C0043EB020008BF20F00100704702F12002EB
:10152C0001FA02FCC2F1200250EA4C0021FA02F24C
:10153C0043EB020008BF20EADC7070474FEA400220
:10154C00B2F1FE4F0FD34FF09E03B3EB12620DD9E5
:10155C004FEA002343F0004310F0004F23FA02F04F
:10156C0018BF404270474FF00000704712F1610FF6
:10157C0001D1420205D110F0004008BF6FF00040CD
:10158C0070474FF0000070470A22002100F082B82B
:10159C00014B1868704700BF08000020012B2DE993
:1015AC00F047804601D0242B06D9FFF7F1FF162314
:1015BC0003600020BDE8F0870D46354F284615F82E
:1015CC00014BE65D16F00806F8D12D2C2FD1012623
:1015DC002C78851C002B57D0102B09D1302C07D11F
:1015EC00287800F0DF00582849D110236C78023598
:1015FC00002706F1004E0EF1FF3EBEFBF3F9384614
:10160C0003FB19EAA4F1300CBCF1090F14D86446A1
:10161C00A34222DD002F1DDB81451BD301D1A24546
:10162C0018DB012700FB034015F8014BEAE72B2CD4
:10163C0004BF2C78851CCDE7A4F1410CBCF1190F2B
:10164C0001D8373CE4E7A4F1610CBCF1190F04D8C4
:10165C00573CDDE74FF0FF37E6E7002F07DA222390
:10166C007046C8F80030002AA4D0691E05E006B107
:10167C004042002A9ED0002FF7D111609AE7302407
:10168C00002BB5D10823B3E7302CA9D00A23AFE740
:10169C00B516000813460A46014602480068FFF7D3
:1016AC007DBF00BF0800002000202020202020202B
:1016BC0020202828282828202020202020202020F6
:1016CC002020202020202020208810101010101006
:1016DC001010101010101010100404040404040452
:1016EC0004040410101010101010414141414141EC
:1016FC0001010101010101010101010101010101CE
:10170C0001010101101010101010424242424242DD
:10171C00020202020202020202020202020202029D
:10172C000202020210101010200000000000000045
:10173C00000000000000000000000000000000009D
:10174C00000000000000000000000000000000008D
:10175C00000000000000000000000000000000007D
:10176C00000000000000000000000000000000006D
:10177C00000000000000000000000000000000005D
:10178C00000000000000000000000000000000004D
:10179C00000000000000000000000000000000003D
:1017AC00000000000000000000000000F8B500BFC1
:1017BC00F8BC08BC9E467047F8B500BFF8BC08BC26
:0417CC009E4670477E
:1017D0004D53BC0200A24A040C000020000000008F
:1017E00000000000000000000000000000000000F9
:1017F00000000000000000000000000000000000E9
:1018000000000000000000000000000000000000D8
:1018100000000000000000000000000000000000C8
:1018200000000000000000000000000000000000B8
:0C183000000000000000000000000000AC
:040000050800115D81
:00000001FF
