:020000040800F2
:1000000000500020CD1100082D1200082D1200080C
:100010002D1200082D1200082D120008000000000B
:100020000000000000000000000000002D12000889
:100030002D120008000000002D1200082D120008EB
:100040002D1200082D1200082D1200082D12000894
:100050002D1200082D1200082D1200082D12000884
:100060002D1200082D1200082D1200082D12000874
:100070002D1200082D1200082D1200082D12000864
:100080002D1200082D1200082D1200082D12000854
:100090002D1200082D1200082D1200087D06000800
:1000A0002D1200082D1200082D1200082D12000834
:1000B0002D120008A10A00082D1200082D120008B8
:1000C0002D1200082D1200082D1200082D12000814
:1000D0002D120008F50C00082D1200082D12000842
:0C00E0002D1200082D1200082D1200083F
:1000EC0080B500AF00F004F800F020F8FCE7000049
:1000FC0080B500AF00F0AAFF00F0A0FC00F008FDF6
:10010C004FF4165000F045F800F018F900F07CFAA6
:10011C0000F060F84FF4967000F0E4FC024800F038
:10012C0043F800BF80BD00BF0416000880B500AFC7
:10013C00084B1B78002B02D0012B03D005E000F0FC
:10014C000BF805E000F017F802E000F014F800BF1F
:10015C0000BF80BD0800002080B582B000AF00F069
:10016C0007FE03467B60FB88184600F0B9FE00BF13
:10017C000837BD4680BD80B582B000AF00F0F8FDF9
:10018C0003467B60786800F007FE00BF0837BD4669
:10019C0080BD80B582B000AF7860786800F034FD27
:1001AC0000BF0837BD4680BD80B582B000AF786017
:1001BC0006E07B685A1C7A601B78184600F07CFDC0
:1001CC007B681B78002BF4D100BF00BF0837BD46FD
:1001DC0080BD000080B500AF03210A4800F036FB5B
:1001EC000421084800F032FB0521064800F02EFBE4
:1001FC000C21054800F02AFB0D21034800F026FBDA
:10020C0000BF80BD00080140000C014080B582B0E9
:10021C0000AF0023FB7103211F4800F000FB0346D5
:10022C005AB297F9073013435BB2FB7104211A4899
:10023C0000F0F5FA03465B005AB297F90730134306
:10024C005BB2FB710521144800F0E9FA03469B00F0
:10025C005AB297F9073013435BB2FB710C210F486C
:10026C0000F0DDFA0346DB005AB297F9073013436E
:10027C005BB2FB710D21094800F0D1FA03461B015A
:10028C005AB297F9073013435BB2FB71FB791846EE
:10029C000837BD4680BD00BF00080140000C01407E
:1002AC0080B584B000AFFFF7B1FF0346FB710023AC
:1002BC00FB600023BB60FB7903F00103002B05D02E
:1002CC00FB68023BFB60BB680133BB60FB7903F04E
:1002DC000203002B05D0FB68013BFB60BB680133BC
:1002EC00BB60FB7903F00403002B02D0BB68013325
:1002FC00BB60FB7903F00803002B05D0FB680133CE
:10030C00FB60BB680133BB60FB7903F01003002B6F
:10031C0005D0FB680233FB60BB680133BB60BB6874
:10032C00002B01D1002304E0FA68BB6892FBF3F3C5
:10033C005BB218461037BD4680BD000080B500AFDB
:10034C0000210A4800F00CFA0121084800F008FAD4
:10035C000A21064800F004FA0B21044800F000FAC8
:10036C0000F0B4FA00F0A8F800BF80BD000C01400A
:10037C0080B582B000AF0346FB80012200210F48FC
:10038C0000F02EFA002201210C4800F029FA01227B
:10039C000A210A4800F024FA00220B21074800F039
:1003AC001FFAFB88184600F003FBFB88184600F088
:1003BC0015FB00BF0837BD4680BD00BF000C0140D7
:1003CC0080B582B000AF0346FB80002200210F48AD
:1003DC0000F006FA012201210C4800F001FA00227B
:1003EC000A210A4800F0FCF901220B21074800F011
:1003FC00F7F9FB88184600F0DBFAFB88184600F08A
:10040C00EDFA00BF0837BD4680BD00BF000C0140AF
:10041C0080B582B000AF0346FB800022002110485B
:10042C0000F0DEF9012201210D4800F0D9F900227B
:10043C000A210B4800F0D4F901220B21084800F0E6
:10044C00CFF9FB885B089BB2184600F0B1FAFB8829
:10045C00184600F0C3FA00BF0837BD4680BD00BF88
:10046C00000C014080B582B000AF0346FB80002237
:10047C000021104800F0B4F9012201210D4800F0D0
:10048C00AFF900220A210B4800F0AAF901220B2136
:10049C00084800F0A5F9FB88184600F089FAFB889B
:1004AC005B089BB2184600F099FA00BF0837BD46AE
:1004BC0080BD00BF000C014080B500AF00220021C0
:1004CC000C4800F08DF9002201210A4800F088F94F
:1004DC0000220A21074800F083F900220B2105486D
:1004EC0000F07EF9002000F063FA002000F076FAAC
:1004FC0000BF80BD000C014080B582B000AF034648
:10050C000A46FB801346BB80002200210E4800F0F7
:10051C0067F9012201210C4800F062F900220A213E
:10052C00094800F05DF901220B21074800F058F949
:10053C00FB88184600F03CFABB88184600F04EFACF
:10054C0000BF0837BD4680BD000C014080B483B0AD
:10055C0000AF0346FB71FB7903F01F03012202FA83
:10056C0003F1054A97F907305B0942F8231000BFE5
:10057C000C37BD4680BC704700E100E080B500AF91
:10058C001D4B9B691C4A43F0010393611A4B9B69F9
:10059C00194A43F008039361184B1B68174A23F060
:1005AC0070631360154B1B68144A43F0806313602F
:1005BC00134BDB68124A23F47063D360104BDB6877
:1005CC000F4A43F48073D3600E4B1B680D4A43F003
:1005DC00400313600B4B9B680A4A43F04003936043
:1005EC00084BDB68074A43F04003D3601720FFF742
:1005FC00ADFF00BF80BD00BF00100240000C0140E9
:10060C00000001400004014080B500AF0021074804
:10061C0000F0A6F800220021044800F0E1F800F0F8
:10062C0077FAFFF7ABFF00BF80BD00BF00080140A9
:10063C0080B500AF01220021064800F0D1F80A2055
:10064C0000F088FA00220021024800F0C9F800BF2F
:10065C0080BD00BF0008014080B400AF034B1B8875
:10066C009BB21846BD4680BC704700BF10000020EE
:10067C0080B582B000AF1B4B5B6903F04003002BCD
:10068C002CD0194B9B8C9BB23B600621174800F079
:10069C00C6F80346002B03D0154A3B6813601AE0DA
:1006AC00134B1B683A689A4205D3114B1B683A6886
:1006BC00D31A7B6007E00E4B1B683A68D31A03F51C
:1006CC007F43FF337B607B680A4AA2FB03235B09F1
:1006DC009AB2094B1A80034B40225A6100BF08376B
:1006EC00BD4680BD0004014000080040000C0140E4
:1006FC000C00002009CB3D8D1000002080B483B08D
:10070C0000AF78607B68124A934206D1114B9B690B
:10071C00104A43F00403936114E07B680E4A934241
:10072C0006D10C4B9B690B4A43F00803936109E01B
:10073C007B680A4A934205D1064B9B69054A43F0F4
:10074C001003936100BF0C37BD4680BC704700BFDF
:10075C000008014000100240000C01400010014054
:10076C0080B584B000AF78600B467B807868FFF76B
:10077C00C5FF7B88FB81FB89072B15D87B681B6821
:10078C00FA8992000F2101FA02F2D2431A407B68D7
:10079C001A607B681B68FA899200032101FA02F245
:1007AC001A437B681A6017E0FB89083BFB817B6866
:1007BC005B68FA8992000F2101FA02F2D2431A40C7
:1007CC007B685A607B685B68FA899200032101FAA6
:1007DC0002F21A437B685A6000BF1037BD4680BDD9
:1007EC0080B483B000AF78600B467B8013467B707F
:1007FC007B78002B07D07B88012202FA03F31A4680
:10080C007B681A6106E07B88012202FA03F31A4620
:10081C007B685A6100BF0C37BD4680BC704780B402
:10082C0083B000AF78600B467B807B689B687A88CE
:10083C00012101FA02F21340002B14BF0123002303
:10084C00DBB218460C37BD4680BC704780B584B00F
:10085C0000AF78600B467B807868FFF74FFF7B8892
:10086C00FB81FB89072B15D87B681B68FA899200E2
:10087C000F2101FA02F2D2431A407B681A607B689E
:10088C001B68FA899200042101FA02F21A437B6870
:10089C001A6017E0FB89083BFB817B685B68FA896F
:1008AC0092000F2101FA02F2D2431A407B685A607F
:1008BC007B685B68FA899200042101FA02F21A4300
:1008CC007B685A6000BF1037BD4680BD80B400AF56
:1008DC00344B9B69334A43F004039361314B9B695E
:1008EC00304A43F4006393612F4B5B682E4A23F428
:1008FC00704323F00F0353602B4B5B682A4A43F47D
:10090C00304343F00B035360284B47221A85274B87
:10091C0040F2E7329A85254B00221A83234B0022A2
:10092C009A83224B00221A84204B1B8B9BB21F4AAA
:10093C0043F068039BB213831C4B9B8B9BB21B4AEB
:10094C0043F4D0439BB29383184B1B8C9BB2174A36
:10095C0043F001039BB21384144B1B8C9BB2134AC0
:10096C0043F480539BB21384104B00229A860F4B96
:10097C000022A3F840200D4BB3F844309BB20B4A35
:10098C006FEA43436FEA53439BB2A2F84430074BE0
:10099C0001229A82054B81221A8000BFBD4680BC81
:1009AC00704700BF0010024000080140002C0140BD
:1009BC0080B483B000AF0346FB80FB88B3F57A7F2D
:1009CC0002D94FF47A73FB80034AFB88938600BFED
:1009DC000C37BD4680BC7047002C014080B483B0FE
:1009EC0000AF0346FB80FB88B3F57A7F02D94FF446
:1009FC007A73FB80044AFB88A2F8403000BF0C37A6
:100A0C00BD4680BC704700BF002C014080B483B051
:100A1C0000AF0346FB71FB7903F01F03012202FABE
:100A2C0003F1054A97F907305B0942F8231000BF20
:100A3C000C37BD4680BC704700E100E080B500AFCC
:100A4C00124BDB69114A43F00203D361104B41F6A0
:100A5C001F421A850E4B09229A850D4B00229A844F
:100A6C000B4B9B899BB20A4A43F001039BB29381C7
:100A7C00074B1B889BB2064A43F001039BB21380C1
:100A8C001D20FFF7C3FF00BF80BD00BF0010024058
:100A9C000004004080B400AF0B4B1B8A9BB203F0E8
:100AAC000103002B0CD0084B1B8A9BB2064A23F087
:100ABC0001039BB21382054B1B680133034A13607D
:100ACC0000BFBD4680BC70470004004014000020ED
:100ADC0080B400AF024B1B681846BD4680BC704703
:100AEC001400002080B584B000AF7860FFF7F0FFF1
:100AFC00F86000BFFFF7ECFF0246FB68D31A7A6878
:100B0C009A42F7D800BF00BF1037BD4680BD000029
:100B1C0080B400AF0D4BDB690C4A43F00403D36186
:100B2C000B4B47221A850A4B4FF6FF729A85084BDE
:100B3C0000229A84064B1B889BB2054A43F00103A2
:100B4C009BB2138000BFBD4680BC704700100240B2
:100B5C000008004080B483B000AF0346FB80084B14
:100B6C0000229A8400BF064B9B8C9BB2FA889A4257
:100B7C00F9D800BF00BF0C37BD4680BC704700BF22
:100B8C000008004080B483B000AF0346FB71FB79D2
:100B9C0003F01F03012202FA03F1054A97F907300B
:100BAC005B0942F8231000BF0C37BD4680BC704770
:100BBC0000E100E080B483B000AF03463960FB7104
:100BCC0097F90730002B0BDA3B68DAB20C49FB794A
:100BDC0003F00F03043B1201D2B20B441A7609E066
:100BEC003B68DAB2074997F907301201D2B20B44CD
:100BFC0083F8002300BF0C37BD4680BC704700BF94
:100C0C0000ED00E000E100E080B582B000AF78605C
:100C1C00234B9B69224A43F004039361204B9B694D
:100C2C001F4A43F4804393611D4B9B691C4A43F05C
:100C3C00010393611B4B5B681A4A23F0F00353606A
:100C4C00184B5B68174A43F0B0035360154B5B6855
:100C5C00144A23F470635360124B5B68114A43F4DB
:100C6C0080635360104B1A687B68B2FBF3F20F4B36
:100C7C0092B21A810D4B42F22C029A81012125204D
:100C8C00FFF798FF2520FFF77DFF094B00221A7014
:100C9C00084B00221A7000BF0837BD4680BD00BF4C
:100CAC000010024000080140040000200038014000
:100CBC00580000205900002080B483B000AF0346D8
:100CCC00FB7100BF074B1B889BB203F08003002B0A
:100CDC00F8D0044BFA7992B29A8000BF0C37BD461B
:100CEC0080BC70470038014080B483B000AF1C4B0F
:100CFC001B889BB203F02003002B1FD0184B9B8842
:100D0C009BB2FB71174B1B78DBB201335A4203F0D9
:100D1C003F0302F03F0258BF5342BB71124B1B788A
:100D2C00DBB2BA799A4209D00E4B1B78DBB219466A
:100D3C000E4AFB7953540B4ABB791370084B1B8832
:100D4C009BB203F00803002B05D0054B9B889BB28C
:100D5C00DBB27B717B7900BF0C37BD4680BC704722
:100D6C0000380140580000205900002018000020D5
:100D7C0080B483B000AF074B1B687B600023BA883C
:100D8C0062F30F03FA8862F31F4318460C37BD4613
:100D9C0080BC70470000002080B582B000AF786046
:100DAC007B79423B102B39D801A252F823F000BFBB
:100DBC000B0E0008290E0008290E0008290E000849
:100DCC00010E0008290E0008290E0008290E000843
:100DDC00290E0008290E0008150E0008290E00081F
:100DEC00290E0008290E0008290E0008290E0008FB
:100DFC001F0E0008FB881846FFF7BAFA11E0FB88B3
:100E0C001846FFF7DDFA0CE0FB881846FFF700FBED
:100E1C0007E0FB881846FFF725FB02E0FFF74CFBC9
:100E2C0000BF00BF0837BD4680BD00BF80B483B093
:100E3C0000AF78607B68002B01DA002308E07B6848
:100E4C00B3F57A7F02DD4FF47A7301E07B689BB2D5
:100E5C0018460C37BD4680BC704780B500AF4FF4C8
:100E6C00D270FFF7D5FADC20FFF73CFE03E04FF41D
:100E7C00D270FFF7CDFAFFF7C9F90346002BF6D075
:100E8C0000BF00BF80BD80B500AF4FF4D270FFF73C
:100E9C00E9FADC20FFF726FE03E04FF4D270FFF7EF
:100EAC00E1FAFFF7B3F90346002BF6D000BF00BF01
:100EBC0080BD80B500AF4FF4D270FFF7D3FA4FF47A
:100ECC00D270FFF70FFE03E04FF4D270FFF7CAFAAF
:100EDC00FFF79CF90346002BF6D000BF00BF80BD86
:100EEC0090B587B000AF0346FB80FFF7F1FD0246DB
:100EFC00524B1B68D31A3B2B06D9FFF799FBFFF714
:100F0C00E7FD03464D4A1360FFF7A6FB0346FB8241
:100F1C00FFF77CF903467B75FB8A002B15D0FB8A07
:100F2C00092B12D87B7D03F00703072B02D1FFF7A7
:100F3C0094FF80E07B7D03F01C031C2B02D1FFF798
:100F4C00A2FF78E0FFF7B5FF75E07B7D1F2B02D188
:100F5C00FFF783FF6FE07B7D03F00703072B02D1C4
:100F6C00FFF77BFF67E07B7D03F01C031C2B02D19A
:100F7C00FFF789FF5FE0FFF793F903463B7597F99D
:100F8C001430184600F0BEFA03462D49184600F0FE
:100F9C004BF903461C4697F91430184600F0B2FA88
:100FAC000246284B1B681946104600F0F5F903461B
:100FBC002549184600F038F903461946204600F03A
:100FCC00EDF903463B6197F91430184600F09AFA94
:100FDC0003461C4A1360FB88184600F093FA03463C
:100FEC003969184600F0D8F903461749184600F03D
:100FFC00D5F90346184600F0D9FA0346FB60FB8886
:10100C00184600F07FFA03463969184600F0C6F915
:10101C000346184600F0CAFA0346BB60F868FFF7AF
:10102C0005FF03461C46B868FFF700FF0346194648
:10103C002046FFF761FA1C37BD4690BD60000020CA
:10104C00000018425C0000200000A04180B500AFF9
:10105C00154B1B68144A43F001031360124B5A687A
:10106C001149124B13404B600F4B1B680E4A23F077
:10107C00847323F4803313600B4B1B680A4A23F4EC
:10108C0080231360084B5B68074A23F4FE0353600C
:10109C00054B4FF41F029A6000F00CF8044B4FF014
:1010AC0000629A6000BF80BD001002400000FFF893
:1010BC0000ED00E080B500AF00F002F800BF80BD8D
:1010CC0080B483B000AF00237B6000233B603A4BBD
:1010DC001B68394A43F480331360374B1B6803F4A5
:1010EC0000333B607B6801337B603B68002B03D192
:1010FC007B68B3F5A06FF0D12F4B1B6803F4003362
:10110C00002B02D001233B6001E000233B603B68D5
:10111C00012B4BD1294B1B68284A43F01003136059
:10112C00264B1B68254A23F003031360234B1B68D3
:10113C00224A43F0020313601F4B1F4A5B68536043
:10114C001D4B1D4A5B6853601B4B5B681A4A43F48A
:10115C0080635360184B5B68174A23F47C1353600D
:10116C00154B5B68144A43F4E8135360124B1B682D
:10117C00114A43F08073136000BF0F4B1B6803F0E0
:10118C000073002BF9D00C4B5B680B4A23F0030364
:10119C005360094B5B68084A43F00203536000BF7D
:1011AC00054B5B6803F00C03082BF9D100BF0C371F
:1011BC00BD4680BC704700BF0010024000200240BA
:1011CC0080B582B000AF114B7B60114B3B6007E0E8
:1011DC007A68131D7B603B68191D396012681A60B0
:1011EC003B680C4A9342F3D30B4B3B6004E03B68E7
:1011FC001A1D3A6000221A603B68084A9342F6D3E3
:10120C00FFF724FFFEF76CFFFEE700BF381600085F
:10121C0000000020080000200800002064000020CE
:10122C0080B400AFFEE700BF4FF0FF0C1CEAD052B9
:10123C001EBF1CEAD15392EA0C0F93EA0C0F6FD02D
:10124C001A4480EA010C400218BF5FEA41211ED00B
:10125C004FF0006343EA501043EA5111A0FB0131F7
:10126C000CF00040B1F5000F3EBF490041EAD371CC
:10127C005B0040EA010062F17F02FD2A1DD8B3F148
:10128C00004F40EBC25008BF20F00100704790F0B7
:10129C00000F0CF0004C08BF49024CEA502040EA09
:1012AC0051207F3AC2BFD2F1FF0340EAC2507047CF
:1012BC0040F400004FF00003013A5DDC12F1190F0D
:1012CC00DCBF00F000407047C2F10002410021FA7F
:1012DC0002F1C2F1200200FA02FC5FEA310040F197
:1012EC00000053EA4C0308BF20EADC70704792F010
:1012FC00000F00F0004C02BF400010F4000F013A48
:10130C00F9D040EA0C0093F0000F01F0004C02BF42
:10131C00490011F4000F013BF9D041EA0C018FE7B1
:10132C000CEAD15392EA0C0F18BF93EA0C0F0AD0B7
:10133C0030F0004C18BF31F0004CD8D180EA0100DD
:10134C0000F00040704790F0000F17BF90F0004F76
:10135C00084691F0000F91F0004F14D092EA0C0F58
:10136C0001D142020FD193EA0C0F03D14B0218BFEB
:10137C00084608D180EA010000F0004040F0FE4031
:10138C0040F40000704740F0FE4040F440007047CD
:10139C0080F0004002E000BF81F0004142001FBF1E
:1013AC005FEA410392EA030F7FEA226C7FEA236C27
:1013BC006AD04FEA1262D2EB1363C1BFD21841401C
:1013CC0048404140B8BF5B42192B88BF704710F0B2
:1013DC00004F40F4000020F07F4018BF404211F055
:1013EC00004F41F4000121F07F4118BF494292EABD
:1013FC00030F3FD0A2F1010241FA03FC10EB0C00E9
:10140C00C3F1200301FA03F100F0004302D5494275
:10141C0060EB4000B0F5000F13D3B0F1807F06D322
:10142C0040084FEA310102F10102FE2A51D2B1F11A
:10143C00004F40EBC25008BF20F0010040EA03000F
:10144C007047490040EB0000013A28BFB0F5000F8F
:10145C00EDD2B0FA80FCACF1080CB2EB0C0200FA45
:10146C000CF0AABF00EBC25052421843BCBFD04094
:10147C001843704792F0000F81F4000106BF80F40E
:10148C0000000132013BB5E74FEA41037FEA226CD1
:10149C0018BF7FEA236C21D092EA030F04D092F09C
:1014AC00000F08BF0846704790EA010F1CBF0020D0
:1014BC00704712F07F4F04D1400028BF40F000402D
:1014CC00704712F100723CBF00F50000704700F04D
:1014DC00004343F0FE4040F4000070477FEA226274
:1014EC0016BF08467FEA23630146420206BF5FEA45
:1014FC00412390EA010F40F4800070474FF0000345
:10150C0004E000BF10F0004348BF40425FEA000C0B
:10151C0008BF704743F0964301464FF000001CE0B3
:10152C0050EA010208BF70474FF000030AE000BF09
:10153C0050EA010208BF704711F0004302D5404247
:10154C0061EB41015FEA010C02BF844601460020B9
:10155C0043F0B64308BFA3F18053A3F50003BCFAD4
:10156C008CF2083AA3EBC25310DB01FA02FC634481
:10157C0000FA02FCC2F12002BCF1004F20FA02F288
:10158C0043EB020008BF20F00100704702F120027B
:10159C0001FA02FCC2F1200250EA4C0021FA02F2DC
:1015AC0043EB020008BF20EADC7070474FEA4002B0
:1015BC00B2F1FE4F0FD34FF09E03B3EB12620DD975
:1015CC004FEA002343F0004310F0004F23FA02F0DF
:1015DC0018BF404270474FF00000704712F1610F86
:1015EC0001D1420205D110F0004008BF6FF000405D
:1015FC0070474FF0000070473D3D3D205359535408
:10160C00454D20494E4954204F4B203D3D3D0D0A40
:10161C0000000000F8B500BFF8BC08BC9E4670473F
:0C162C00F8B500BFF8BC08BC9E46704733
:081638004D53BC0200A24A045C
:04000005080011CD11
:00000001FF
