:020000040800F2
:1000000000500020A90B00082D0C00082D0C000842
:100010002D0C00082D0C00082D0C0008000000001D
:100020000000000000000000000000002D0C00088F
:100030002D0C0008000000002D0C00082D0C0008FD
:100040002D0C00082D0C00082D0C00082D0C0008AC
:100050002D0C00082D0C00082D0C00082D0C00089C
:100060002D0C00082D0C00082D0C00082D0C00088C
:100070002D0C00082D0C00082D0C00082D0C00087C
:100080002D0C00082D0C00082D0C00082D0C00086C
:100090002D0C00082D0C00082D0C00082D0C00085C
:1000A0002D0C00082D0C00082D0C00082D0C00084C
:1000B0002D0C00082D0C00082D0C00082D0C00083C
:1000C0002D0C00082D0C00082D0C00082D0C00082C
:1000D0002D0C0008FD0800082D0C00082D0C000850
:1000E0002D0C00082D0C00082D0C0008000000004D
:1000F0000000000000000000000000000000000000
:080100000000000000000000F7
:1001080080B582B002AF4FF4165000F095FB00F0B6
:1001180019FB01230093064B01220021054800F03A
:100128000BF8044800F022F8642000F045FBF8E7DB
:10013800000C01400000002080B584B000AFF860DA
:100148007B600B46FB721346BB72FB68BA7AF97A7E
:10015800184600F01BF9FB6804333A8B7968184697
:1001680000F066F800BF1037BD4680BD80B586B088
:1001780000AF78607B68184600F01FF903467B8261
:100188007B68184600F029F903463B827B680433F4
:10019800184600F06AF80346FB735323FB750023E7
:1001A800BB82FB7B412B05D14623FB754FF42F7394
:1001B800BB8233E03A8A7B8A1146184600F08DF8F4
:1001C8000346FB75FB7D462B02D0FB7D422B0ED1EF
:1001D8003B8AB3F5006F04D93B8AA3F500639BB251
:1001E80003E03B8AC3F500639BB2BB8213E0FB7D4F
:1001F8004C2B02D0FB7D522B0DD17B8AB3F5006FBF
:1002080004D97B8AA3F500639BB203E07B8AC3F51C
:1002180000639BB2BB82BB8A5B08BB82BA8AF97D4A
:10022800FB7B184600F08DF800BF1837BD4680BD2F
:1002380080B584B000AFF860B9601346FB80FB68F6
:10024800BA681A60FB68FA889A80FB684D229A712E
:10025800FB680122DA71FB8801221946B86800F0B0
:10026800F7F900BF1037BD4680BD80B584B000AF38
:1002780078607B681A687B689B881946104600F08E
:100288004CFA0346FB737B68DB79012B1CD1FB7BA3
:10029800002B19D1142000F08FFA00BF7B681A6870
:1002A8007B689B881946104600F037FA0346002BF6
:1002B800F4D07B689B794D2B03D17B6841229A71DE
:1002C80002E07B684D229A717B68FA7BDA717B6861
:1002D8009B7918461037BD4680BD80B485B000AF05
:1002E80003460A46FB801346BB80FB88A3F50063E0
:1002F8009BB2FB81BB88A3F500639BB2BB81B7F9B6
:100308000C30B3F5967F01DD462315E0B7F90C30C4
:1003180013F5967F01DA42230EE0B7F90E30B3F5F4
:10032800967F01DD522307E0B7F90E3013F5967F6B
:1003380001DA4C2300E0532318461437BD4680BC2D
:10034800704780B582B000AF0346FB710B46BB71A6
:100358001346BB80242000F005FBFB79184600F00B
:1003680001FB2C2000F0FEFABB79184600F0FAFADF
:100378002C2000F0F7FABB88184600F00BFB23206E
:1003880000F0F0FA00BF0837BD4680BD80B483B0E6
:1003980000AF78600B46FB701346BB707B68FA7839
:1003A8001A707B68BA785A707B684FF400625A807A
:1003B80000BF0C37BD4680BC704780B582B000AF27
:1003C80078607B681B78184600F052F800F0DEF879
:1003D800034618460837BD4680BD80B582B000AFD9
:1003E80078607B685B78184600F042F800F0CEF839
:1003F800034618460837BD4680BD000080B483B068
:1004080000AF0346FB71174B9B69164A43F00C0378
:100418009361FB79072B0CD8134B1B68FA79920070
:100428000F2101FA02F2D24311460F4A0B40136022
:1004380012E0FB79082B06D10C4B1B680B4A23F002
:100448000F03136008E0FB79092B05D1074B1B68E4
:10045800064A23F0F003136000BF0C37BD4680BC8A
:10046800704700BF0010024000080140000C014026
:1004780080B584B000AF0346FB71404AFB79137026
:10048800FB791846FFF7BAFF3D4B1B78002B51D17B
:100498003C4B9B693B4A43F400739361394B5B685F
:1004A800384A23F440435360364B5B68354A43F47B
:1004B80000435360344B00225A60334B00229A6049
:1004C800314B9B68304A43F4801393602E4B9B68F2
:1004D8002D4A43F4602393602B4B9B682A4A43F0D0
:1004E800010393600023FB6002E0FB680133FB60BB
:1004F800FB6842F20F729342F7DD234B9B68224A56
:1005080043F00803936000BF1F4B9B6803F0080388
:10051800002BF9D11C4B9B681B4A43F004039360E2
:1005280000BF194B9B6803F00403002BF9D1144B4F
:1005380001221A70144B0022DA62134AFB795363C2
:10054800114B1969FA7913465B001344072202FA22
:1005580003F3DB430C4A0B4013610B4B1969FA791F
:1005680013465B001344072202FA03F3064A0B43BF
:10057800136100BF1037BD4680BD00BF0C000020CE
:100588000D000020001002400024014080B400AF9C
:100598000E4B1A780E4B5A630D4B1B680C4A23F00E
:1005A800020313600A4B9B68094A43F48003936073
:1005B80000BF074B1B6803F00203002BF9D0044B64
:1005C800DB6C9BB21846BD4680BC70470C0000200F
:1005D8000024014080B483B000AF78607B68174A7C
:1005E800934206D1164B9B69154A43F00403936165
:1005F8001FE07B68134A934206D1114B9B69104A4E
:1006080043F00803936114E07B680F4A934206D1D4
:100618000B4B9B690A4A43F01003936109E07B681E
:100628000A4A934205D1064B9B69054A43F02003C9
:10063800936100BF0C37BD4680BC7047000801407D
:1006480000100240000C014000100140001401405D
:1006580080B584B000AF78600B467B8013467B7012
:100668000023FB737868FFF7B5FF02E0FB7B0133DB
:10067800FB737A88FB7B42FA03F303F00103002B38
:10068800F4D0FB7B072B02D87B68BB6005E07B6856
:100698000433BB60FB7B083BFB73BB681B68FA7BBE
:1006A80092000F2101FA02F2D2431A40BB681A6085
:1006B8007B78022B22D0022B2BDC002B02D0012BC3
:1006C8000BD026E0BB681B68FA7B9200032101FA75
:1006D80002F21A43BB681A601BE0BB681B68FA7B0E
:1006E8009200082101FA02F21A43BB681A607B687B
:1006F800DA687B881A437B68DA600AE0BB681B68A3
:10070800FA7B9200042101FA02F21A43BB681A60CC
:1007180000BF00BF1037BD4680BD80B483B000AFB6
:1007280078600B467B807B689A687B881340002B37
:1007380014BF01230023DBB218460C37BD4680BC2A
:100748007047000080B400AF1A4BDB69194A43F0C8
:100758000103D3614FF0804341F61F421A854FF0E1
:10076800804309229A854FF0804300229A844FF0F3
:1007780080439B8A9BB24FF0804243F001039BB2B7
:1007880093824FF080431B8A9BB24FF0804223F044
:1007980001039BB213824FF080431B889BB24FF03A
:1007A800804243F001039BB2138000BFBD4680BC6A
:1007B800704700BF0010024080B483B000AF03460A
:1007C800FB8016E04FF0804300229A844FF080436C
:1007D8001B8A9BB24FF0804223F001039BB2138225
:1007E80000BF4FF080431B8A9BB203F00103002B2C
:1007F800F7D0FB885A1EFA80002BE3D100BF00BF58
:100808000C37BD4680BC704780B483B000AF034648
:10081800FB71FB7903F01F03012202FA03F1054A79
:1008280097F907305B0942F8231000BF0C37BD4623
:1008380080BC704700E100E080B582B000AF78600E
:10084800284B9B69274A43F004039361254B9B6916
:10085800244A43F480439361234B5B68224A23F084
:10086800F0035360204B5B681F4A43F0B0035360AA
:100878001D4B5B681C4A23F4706353601A4B5B681A
:10088800194A43F480635360184A7B68B2FBF3F259
:10089800174B92B21A81164B9B899BB2144A43F0AC
:1008A80008039BB29381124B9B899BB2104A43F079
:1008B80004039BB293810E4B9B899BB20C4A43F075
:1008C80020039BB293812520FFF79EFF084B9B894D
:1008D8009BB2074A43F400539BB2938100BF083789
:1008E800BD4680BD001002400008014000A24A0435
:1008F8000038014080B483B000AF164B1B889BB210
:1009080003F02003002B1FD0124B9B889BB2FB7176
:10091800114B1B78DBB201335A4203F03F0302F05C
:100928003F0258BF5342BB710C4B1B78DBB2BA79FC
:100938009A4209D0084B1B78DBB21946084AFB7962
:100948005354054ABB79137000BF0C37BD4680BCB1
:10095800704700BF003801405000002051000020BF
:100968001000002080B483B000AF0346FB7100BFC5
:10097800074B1B889BB203F08003002BF8D0044B75
:10098800FA7992B29A8000BF0C37BD4680BC704796
:100998000038014080B586B000AF78600023FB7551
:1009A8007B68002B03D13020FFF7DCFF39E07B6840
:1009B800002B24DA2D20FFF7D5FF7B685B427B6094
:1009C8001DE07A68184B83FB02139910D317C91AD4
:1009D8000B469B000B445B00D11ACAB2FB7D591C25
:1009E800F9753032D2B218333B4403F8102C7B68C7
:1009F8000D4A82FB03129210DB17D31A7B607B68C7
:100A0800002BDEDC0AE0FB7D013BFB75FB7D183328
:100A18003B4413F8103C1846FFF7A4FFFB7D002B5E
:100A2800F1D11837BD4680BD6766666680B500AFF0
:100A3800154B1B68144A43F001031360124B5A68A4
:100A48001149124B13404B600F4B1B680E4A23F0A1
:100A5800847323F4803313600B4B1B680A4A23F416
:100A680080231360084B5B68074A23F4FE03536036
:100A7800054B4FF41F029A6000F00CF8044B4FF03E
:100A880000629A6000BF80BD001002400000FFF8BD
:100A980000ED00E080B500AF00F002F800BF80BDB7
:100AA80080B483B000AF00237B6000233B603A4BE7
:100AB8001B68394A43F480331360374B1B6803F4CF
:100AC80000333B607B6801337B603B68002B03D1BC
:100AD8007B68B3F5A06FF0D12F4B1B6803F400338C
:100AE800002B02D001233B6001E000233B603B6800
:100AF800012B4BD1294B1B68284A43F01003136084
:100B0800264B1B68254A23F003031360234B1B68FD
:100B1800224A43F0020313601F4B1F4A5B6853606D
:100B28001D4B1D4A5B6853601B4B5B681A4A43F4B4
:100B380080635360184B5B68174A23F47C13536037
:100B4800154B5B68144A43F4E8135360124B1B6857
:100B5800114A43F08073136000BF0F4B1B6803F00A
:100B68000073002BF9D00C4B5B680B4A23F003038E
:100B78005360094B5B68084A43F00203536000BFA7
:100B8800054B5B6803F00C03082BF9D100BF0C3749
:100B9800BD4680BC704700BF0010024000200240E4
:100BA80080B586B000AF1A4B7B611A4B3B611A4A7D
:100BB800174BD31A7B600023FB600AE03A69531C89
:100BC8003B617B69591C796112781A70FB680133A3
:100BD800FB60FA687B689A42F0D3104B7B61104A3D
:100BE8000E4BD31A7B600023BB6007E07B695A1C5D
:100BF8007A6100221A70BB680133BB60BA687B68EF
:100C08009A42F3D3FFF712FFFFF77AFAFEE700BF25
:100C180000000020340C0008000000200000002024
:0C0C28005400002080B400AFFEE700BFC5
:040C3400F8B500BF50
:040C3800F8B500BF4C
:0400000508000BA93B
:00000001FF
