:020000040800F2
:10000000005000206D090008ED090008ED09000806
:10001000ED090008ED090008ED09000800000000E6
:10002000000000000000000000000000ED090008D2
:10003000ED09000800000000ED090008690500084E
:10004000ED090008ED090008ED090008ED090008B8
:10005000ED090008ED090008ED090008ED090008A8
:10006000ED090008ED090008ED090008ED09000898
:10007000ED090008ED090008ED090008ED09000888
:10008000ED090008ED090008ED090008ED09000878
:10009000ED090008ED090008ED090008ED09000868
:1000A000ED090008ED090008ED090008ED09000858
:1000B000ED090008ED090008ED090008ED09000848
:1000C000ED090008ED090008ED090008ED09000838
:1000D000ED0900085D070008ED090008ED090008BA
:1000E000ED090008ED090008ED0900080000000016
:1000F0000000000000000000000000000000000000
:080100000000000000000000F7
:1001080080B500AF00F074FB00F038FA00F006F894
:1001180000F010F8322000F04DFAF9E780B500AF92
:100128004FF4165000F04EFB00F0B8F800F022F83B
:1001380000BF80BD80B582B000AF00F0CCF80346A8
:100148003B6000F021F80346FB713B887A88114632
:10015800184600F029F80346BB717B889B08BB80D2
:10016800BA88B979FB79184600F05AF800BF083701
:10017800BD4680BD80B500AF0321024800F090F96C
:1001880000BF80BD0008014080B500AF03210548CD
:1001980000F0CFF90346002B01D15A2300E04D238C
:1001A800184680BD0008014080B483B000AF034604
:1001B8000A46FB801346BB80FB88B3F5E16F0FD975
:1001C800FB8840F6970293420AD8BB88B3F5E16FE3
:1001D80006D9BB8840F69702934201D853231AE008
:1001E800BB8840F6B832934201D9462313E0BB8856
:1001F800B3F57A7F01D242230DE0FB8840F6B8328E
:10020800934201D9522306E0FB88B3F57A7F01D2E5
:100218004C2300E0532318460C37BD4680BC70477A
:1002280080B58AB002AF0346FB710B46BB7113461B
:10023800BB80FA79B979BB8807F10C0000930B46AB
:10024800054900F0D3FB07F10C03184600F0C5FA86
:1002580000BF2037BD4680BD0413000880B584B0B8
:1002680000AF0346FB710023FB600023FB720BE029
:10027800FB79184600F0A2F803461A46FB681344B7
:10028800FB60FB7A0133FB72FB7A032BF0D9FB6826
:100298009B089BB218461037BD4680BD80B500AF9D
:1002A80000F030F800BF80BD80B582B000AF786044
:1002B80039600020FFF7D2FF03461A467B681A8090
:1002C8000120FFF7CBFF03461A463B681A8000BFA0
:1002D8000837BD4680BD80B582B000AF3B469A1C4A
:1002E8003B4611461846FFF7DFFF3B687B6000235B
:1002F800BA8862F30F03FA8862F31F431846083777
:10030800BD4680BD80B483B000AF294B9B69284AA5
:1003180043F004039361264B9B69254A43F4007319
:100328009361244B1B68234A23F0FF031360204B7F
:100338005B681F4A23F4404353601D4B5B681C4AAB
:1003480043F4004353601C4B0022DA621A4B9B684B
:10035800194A43F00103936000237B6002E07B6845
:1003680001337B607B6842F20F729342F7DD124BD8
:100378009B68114A43F00803936000BF0E4B9B68CB
:1003880003F00803002BF9D10B4B9B680A4A43F092
:100398000403936000BF084B9B6803F00403002B21
:1003A800F9D100BF00BF0C37BD4680BC704700BF05
:1003B80000100240000801400024014080B485B0CC
:1003C80000AF0346FB711C4AFB7953631A4B19694A
:1003D800FA7913465B001344072202FA03F3DB435E
:1003E800154A0B401361144B1969FA7913465B00DF
:1003F8001344072202FA03F30F4A0B4313610E4B0F
:100408009B680D4A43F48003936000BF0A4B1B6846
:1004180003F00203002BF9D0074BDB6CFB81064B82
:100428001B68054A23F002031360FB89184614373A
:10043800BD4680BC704700BF0024014080B483B033
:1004480000AF78607B68124A934206D1114B9B69D2
:10045800104A43F00403936114E07B680E4A934208
:1004680006D10C4B9B690B4A43F00803936109E0E2
:100478007B680A4A934205D1064B9B69054A43F0BB
:100488001003936100BF0C37BD4680BC704700BFA6
:100498000008014000100240000C0140001001401B
:1004A80080B584B000AF78600B467B807868FFF732
:1004B800C5FF7B88FB81FB89072B15D87B681B68E8
:1004C800FA8992000F2101FA02F2D2431A407B689E
:1004D8001A607B681B68FA899200082101FA02F207
:1004E8001A437B681A6017E0FB89083BFB817B682D
:1004F8005B68FA8992000F2101FA02F2D2431A408E
:100508007B685A607B685B68FA899200082101FA67
:1005180002F21A437B685A607B68DB687A8801219B
:1005280001FA02F21A437B68DA6000BF1037BD4651
:1005380080BD80B483B000AF78600B467B807B6859
:100548009A687B88012101FA03F31340002B01D03C
:10055800012300E0002318460C37BD4680BC7047D5
:1005680080B400AF044B1B680133034A136000BF1B
:10057800BD4680BC704700BF0000000080B400AFDB
:10058800094B1B68094AA2FB03239B09084A013B44
:100598005360074B00229A60054B07221A6000BF80
:1005A800BD4680BC704700BF00000020D34D6210DC
:1005B80010E000E080B485B000AF7860084B1B689D
:1005C800FB6000BF064B1A68FB68D31A7A689A4228
:1005D800F8D800BF00BF1437BD4680BC704700BFC5
:1005E8000000000080B483B000AF0346FB71FB79C4
:1005F80003F01F03012202FA03F1054A97F90730B5
:100608005B0942F8231000BF0C37BD4680BC704719
:1006180000E100E080B582B000AF78602D4B9B69A7
:100628002C4A43F0040393612A4B9B69294A43F4FB
:1006380080439361274B9B69264A43F001039361EA
:10064800254B5B68244A23F0F0035360224B5B6818
:10065800214A43F0B00353601F4B5B681E4A23F4E2
:10066800706353601C4B5B681B4A43F480635360A0
:100678001A4B1A687B68B2FBF3F2194B92B21A81D3
:10068800174B00229A81164B9B899BB2144A43F060
:1006980008039BB29381124B9B899BB2104A43F08B
:1006A80004039BB293810E4B9B899BB20C4A43F087
:1006B80020039BB293810A4B9B899BB2084A43F45F
:1006C80000539BB293812520FFF78CFF00BF0837AA
:1006D800BD4680BD00100240000801400000002017
:1006E8000038014080B483B000AF0346FB7100BFFF
:1006F800074B1B889BB203F08003002BF8D0044BF8
:10070800FA7992B29A8000BF0C37BD4680BC704718
:100718000038014080B582B000AF786006E07B68A1
:100728005A1C7A601B781846FFF7DCFF7B681B7839
:10073800002BF4D100BF064B1B889BB203F040038B
:10074800002BF8D000BF00BF0837BD4680BD00BFF2
:100758000038014080B483B000AF164B1B889BB2B1
:1007680003F02003002B1FD0124B9B889BB2FB7118
:10077800114B1B78DBB201335A4203F03F0302F0FE
:100788003F0258BF5342BB710C4B1B78DBB2BA799E
:100798009A4209D0084B1B78DBB21946084AFB7904
:1007A8005354054ABB79137000BF0C37BD4680BC53
:1007B800704700BF003801404400000045000000B9
:1007C8000400000080B582B000AF78607868FFF759
:1007D80021FF00BF0837BD4680BD80B582B000AF9D
:1007E80078607868FFF796FF00BF0837BD4680BD80
:1007F80080B500AF154B1B68144A43F00103136022
:10080800124B5A681149124B13404B600F4B1B682F
:100818000E4A23F0847323F4803313600B4B1B6858
:100828000A4A23F480231360084B5B68074A23F4C1
:10083800FE035360054B4FF41F029A6000F00CF85A
:10084800044B4FF000629A6000BF80BD0010024068
:100858000000FFF800ED00E080B500AF00F002F8FE
:1008680000BF80BD80B483B000AF00237B6000234D
:100878003B603A4B1B68394A43F480331360374B6B
:100888001B6803F400333B607B6801337B603B6883
:10089800002B03D17B68B3F5A06FF0D12F4B1B68F9
:1008A80003F40033002B02D001233B6001E0002356
:1008B8003B603B68012B4BD1294B1B68284A43F00E
:1008C80010031360264B1B68254A23F003031360AB
:1008D800234B1B68224A43F0020313601F4B1F4A35
:1008E8005B6853601D4B1D4A5B6853601B4B5B681C
:1008F8001A4A43F480635360184B5B68174A23F421
:100908007C135360154B5B68144A43F4E813536037
:10091800124B1B68114A43F08073136000BF0F4BE2
:100928001B6803F00073002BF9D00C4B5B680B4A73
:1009380023F003035360094B5B68084A43F0020342
:10094800536000BF054B5B6803F00C03082BF9D11B
:1009580000BF0C37BD4680BC704700BF0010024086
:100968000020024080B586B000AF194A194BD31A4F
:100978007B60184B7B61184B3B610023FB600AE0EE
:100988003A69531C3B617B69591C796112781A706A
:10099800FB680133FB60FA687B689A42F0D30F4A20
:1009A8000F4BD31A7B600E4B7B610023BB6007E0C3
:1009B8007B695A1C7A6100221A70BB680133BB60DC
:1009C800BA687B689A42F3D3FFF79AFBFEE700BF49
:1009D8006800002000000020441300085C000000AC
:1009E8000000000080B400AFFEE700BF0EB46FF057
:1009F800004100B59CB01DAB029006900791049190
:100A08000848094953F8042B0591006802A9019385
:100A180000F068F80022029B1A701CB05DF804EB25
:100A280003B07047040000200802FFFF2DE9F047DB
:100A38008E6882469E420C4690461F4638D88A8960
:100A480012F4906F32D0256809690133A5EB0109CA
:100A580065694B4405EB450505EBD5756D109D4261
:100A680038BF1D46530531D5294600F06FFB0646B1
:100A780050B90C234FF0FF30CAF80030A38943F077
:100A88004003A381BDE8F0874A46216900F0CEFA09
:100A9800A38923F4906343F08003A38126614E4425
:100AA80026603E466561A5EB0905A560BE4200D9F2
:100AB8003E4632464146206800F0C6FAA368002048
:100AC8009B1BA360236833442360DBE72A4600F0BE
:100AD800B1FB06460028E1D15046216900F0CEFA64
:100AE800C7E700002DE9F04F98468B8907461B069B
:100AF8000D4614469DB00ED50B6963B9402100F030
:100B080025FB2860286120B90C233B604FF0FF309B
:100B1800D1E040236B610023099320238DF829300D
:100B280030234FF00109CDF80C80DFF8A4818DF84F
:100B38002A3023469A4613F8012B0AB1252AF9D1FF
:100B4800BAEB040B0BD05B46224629463846FFF722
:100B58006DFF013000F0AA80099A5A4409929AF868
:100B68000030002B00F0A28000234FF0FF32CDE9C7
:100B780005230AF1010A049307938DF853301A9359
:100B88005446052214F8011B514800F041FA049A12
:100B9800D8B9D00644BF20238DF85330110744BF7D
:100BA8002B238DF853309AF800302A2B15D0544651
:100BB80000204FF00A0C079A214611F8013B303B00
:100BC800092B4ED9B0B1079214E0A0EB080309FA3B
:100BD80003F31343A2460493D2E7039B191D1B6832
:100BE8000391002BBBBF5B4242F0020207930793BD
:100BF800B8BF049223782E2B0CD163782A2B35D1D9
:100C0800039B02341A1D1B680392002BB8BF4FF0D8
:100C1800FF330593DFF8BCA003225046217800F08B
:100C2800F7F940B14023A0EB0A0003FA00F0049B57
:100C380001340343049314F8011B062226488DF857
:100C4800281000F0E5F9002838D0244B1BBB039B83
:100C5800073323F0070308330393099B33440993AD
:100C680067E70C4601200CFB0232A5E700234FF092
:100C78000A0C194601340593204610F8012B303A26
:100C8800092A03D9002BC5D00591C3E704460123DF
:100C98000CFB0121F0E703AB00932A463846104BC2
:100CA80004A9AFF30080421C0646D6D1AB895B0687
:100CB8003FF52CAF09981DB0BDE8F08F03AB00934A
:100CC8002A463846064B04A900F07CF8EBE700BF3B
:100CD8000F1300081513000819130008000000007E
:100CE800350A00082DE9F047164699468A680B69C7
:100CF80007469342B8BF1346336091F843200C4629
:100D0800DDF820800AB1013333602368990642BFB9
:100D1800336802333360256815F0060506D104F1FF
:100D2800190AE36832689B1AAB4228DC94F843201E
:100D3800131E226818BF012392062DD4494638464F
:100D480004F14302C047013020D02368E56803F06E
:100D58000603042B18BF002532684FF00006A3686D
:100D680008BFAD1A226908BF25EAE5759342C4BFDA
:100D78009B1AED181A34B5421AD1002008E0012355
:100D8800524649463846C047013003D14FF0FF303C
:100D9800BDE8F0870135C4E73020E11881F8430049
:100DA8005A1C94F845102244023382F84310C5E7D0
:100DB8000123224649463846C0470130E6D001366D
:100DC800D9E700002DE9FF470F7E9146782F80462E
:100DD8000C469A460C9D01F1430207D8622F0AD8A7
:100DE800002F00F0D980582F00F0A48004F14205AC
:100DF80084F842703AE0A7F16303152BF6D801A1F5
:100E080051F823F0650E0008790E0008F50D00086A
:100E1800F50D0008F50D0008F50D0008790E00081D
:100E2800F50D0008F50D0008F50D0008F50D000892
:100E3800870F0008A90E0008690F0008F50D0008C3
:100E4800F50D0008A90F0008F50D0008A90E000807
:100E5800F50D0008F50D0008710F00082B681A1D24
:100E68001B682A6004F1420584F842300123A4E09B
:100E780020682968060601F104030AD50E682B606C
:100E8800002E03DA2D23764284F843300A235E4885
:100E980019E00E6810F0400F2B6018BF36B2EFE76C
:100EA8002B682068191D2960010601D51E6802E01B
:100EB8004606FBD51E886F2F0CBF08230A2352480D
:100EC800002184F843106568002DA8BF2168A5603B
:100ED800A4BF21F0040121600EB9002D4DD01546A4
:100EE800B6FBF3F103FB1167C75D05F8017D3746D3
:100EF800BB420E46F4D9082B0BD12368DE0708D570
:100F0800236961689942DEBF302305F8013C05F189
:100F1800FF35521B22614B4621464046CDF800A0C2
:100F280003AAFFF7DFFE01304CD14FF0FF3004B0C9
:100F3800BDE8F087344881F845702968236851F87E
:100F4800046B29601D0614D5DF0744BF43F0200356
:100F580023601EB9236823F0200323601023AFE722
:100F6800236843F0200323607823284884F8453019
:100F7800E3E7590648BFB6B2E6E71546BBE72B6874
:100F88002668181D6169286035061B6801D5196037
:100F980002E07006FBD51980002315462361BAE7E5
:100FA8002B6800211A1D2A601D686268284600F017
:100FB8002FF808B1401B606063682361002384F840
:100FC8004330A8E72A46494640462369D0470130BE
:100FD800ABD023689B0713D4E068039B9842B8BF43
:100FE8001846A4E70123324649464046D047013017
:100FF8009BD00135E36803995B1AAB42F2DCEBE75F
:10100800002504F11906F5E720130008311300083C
:10101800034610B5C9B202449342184601D10020D4
:1010280003E0047801338C42F6D110BD0A449142A2
:1010380000F1FF3300D1704710B511F8014B914210
:1010480003F8014FF9D110BD884210B501EB020435
:1010580002D98442234607D8431EA14208D011F87A
:10106800012B03F8012FF8E7014602448A4200D118
:1010780010BD13F8014D02F8014DF7E738B50546E4
:10108800002940D051F8043C0C1F002BB8BFE418CD
:1010980000F010F91C4A136833B9636014602846DD
:1010A800BDE8384000F00CB9A34208D920682118DF
:1010B8008B4201BF19685B6809182160EDE71A4681
:1010C8005B680BB1A342FAD911685018A0420BD142
:1010D80020680144501883421160E0D118685B68A9
:1010E800014411605360DAE702D90C232B60D6E77C
:1010F800206821188B4201BF19685B6809182160B4
:1011080063605460CBE738BD4800000070B50E4EF0
:101118000C463168054611B900F0BCF8306021462C
:10112800284600F0B7F8431C0AD0C41C24F0030476
:10113800A04207D0211A284600F0ACF8013001D1AE
:101148004FF0FF34204670BD4C0000002DE9F041FF
:10115800CD1C25F0030508350C2D38BF0C25002DB6
:10116800074601DBA94205D90C2300263B6030461F
:10117800BDE8F0812E4E00F09DF833681C4634BB64
:1011880029463846FFF7C2FF431C04464DD1346850
:101198002646002E40D123683146384604EB030822
:1011A80000F078F880453AD1216803356D1A25F0AA
:1011B800030508350C2D38BF0C2538462946FFF79E
:1011C800A5FF01302BD023682B4423600EE0226852
:1011D800521B1ED40B2A16D96119A342256018BFC9
:1011E8005960636808BF316062514B60384604F14A
:1011F8000B0600F065F826F00706231DF21AB6D094
:101208009B1BA350B3E76268A3420CBF32605A60CD
:10121800ECE723466468B2E734467668B9E70C23FE
:1012280038463B6000F04CF8A1E72560DEE700BFD8
:10123800480000002DE9F041804614460E4621B9C9
:101248001146BDE8F041FFF781BF2AB9FFF716FF45
:1012580025462846BDE8F08100F038F88442074664
:1012680002D8B4EB500F12D821464046FFF76EFF64
:1012780005460028EDD0BC422246314628BF3A46F2
:10128800FFF7D4FE31464046FFF7F8FEE1E7354662
:10129800DFE7000038B50023054D044608462B60FB
:1012A80000F01EF8431C02D12B6803B1236038BD3F
:1012B80050000000014800F011B800BF54000000C1
:1012C800014800F00CB800BF5400000051F8043C7D
:1012D800181F002BBCBF0B58C018704770477047C9
:1012E800044A05491368002B08BF0B4618441060D0
:1012F80018467047580000005C0000002425632C45
:1013080025632C25642300232D302B2000686C4C8A
:101318000065666745464700303132333435363725
:10132800383941424344454600303132333435364A
:0C133800373839616263646566000000AC
:04134400F8B500BF39
:04134800F8B500BF35
:10134C0000A24A0408000020000000000000000079
:10135C000000000000000000000000000000000081
:10136C000000000000000000000000000000000071
:10137C000000000000000000000000000000000061
:10138C000000000000000000000000000000000051
:10139C000000000000000000000000000000000041
:0813AC00000000000000000039
:040000050800096D79
:00000001FF
